{
  "_format": "hh-sol-artifact-1",
  "contractName": "TankMarket",
  "sourceName": "contracts/TankMarket.sol",
  "abi": [
    {
      "inputs": [
        {
          "internalType": "uint256",
          "name": "listingCost",
          "type": "uint256"
        },
        {
          "internalType": "address",
          "name": "tokenContract",
          "type": "address"
        },
        {
          "internalType": "address",
          "name": "nftContract",
          "type": "address"
        }
      ],
      "stateMutability": "nonpayable",
      "type": "constructor"
    },
    {
      "anonymous": false,
      "inputs": [
        {
          "indexed": true,
          "internalType": "uint256",
          "name": "itemId",
          "type": "uint256"
        },
        {
          "indexed": true,
          "internalType": "uint256",
          "name": "tokenId",
          "type": "uint256"
        },
        {
          "indexed": false,
          "internalType": "address",
          "name": "seller",
          "type": "address"
        },
        {
          "indexed": false,
          "internalType": "address",
          "name": "owner",
          "type": "address"
        },
        {
          "indexed": false,
          "internalType": "uint256",
          "name": "price",
          "type": "uint256"
        },
        {
          "indexed": false,
          "internalType": "bool",
          "name": "sold",
          "type": "bool"
        }
      ],
      "name": "MarketItemCreated",
      "type": "event"
    },
    {
      "anonymous": false,
      "inputs": [
        {
          "indexed": true,
          "internalType": "address",
          "name": "previousOwner",
          "type": "address"
        },
        {
          "indexed": true,
          "internalType": "address",
          "name": "newOwner",
          "type": "address"
        }
      ],
      "name": "OwnershipTransferred",
      "type": "event"
    },
    {
      "inputs": [
        {
          "internalType": "uint256",
          "name": "tokenId",
          "type": "uint256"
        },
        {
          "internalType": "uint256",
          "name": "price",
          "type": "uint256"
        }
      ],
      "name": "createMarketItem",
      "outputs": [],
      "stateMutability": "nonpayable",
      "type": "function"
    },
    {
      "inputs": [],
      "name": "getListingCost",
      "outputs": [
        {
          "internalType": "uint256",
          "name": "",
          "type": "uint256"
        }
      ],
      "stateMutability": "view",
      "type": "function"
    },
    {
      "inputs": [],
      "name": "getMarketItems",
      "outputs": [
        {
          "components": [
            {
              "internalType": "uint256",
              "name": "itemId",
              "type": "uint256"
            },
            {
              "internalType": "uint256",
              "name": "tokenId",
              "type": "uint256"
            },
            {
              "internalType": "address",
              "name": "seller",
              "type": "address"
            },
            {
              "internalType": "address",
              "name": "owner",
              "type": "address"
            },
            {
              "internalType": "uint256",
              "name": "price",
              "type": "uint256"
            },
            {
              "internalType": "bool",
              "name": "sold",
              "type": "bool"
            }
          ],
          "internalType": "struct TankMarket.MarketItem[]",
          "name": "",
          "type": "tuple[]"
        }
      ],
      "stateMutability": "view",
      "type": "function"
    },
    {
      "inputs": [],
      "name": "getMyItems",
      "outputs": [
        {
          "components": [
            {
              "internalType": "uint256",
              "name": "itemId",
              "type": "uint256"
            },
            {
              "internalType": "uint256",
              "name": "tokenId",
              "type": "uint256"
            },
            {
              "internalType": "address",
              "name": "seller",
              "type": "address"
            },
            {
              "internalType": "address",
              "name": "owner",
              "type": "address"
            },
            {
              "internalType": "uint256",
              "name": "price",
              "type": "uint256"
            },
            {
              "internalType": "bool",
              "name": "sold",
              "type": "bool"
            }
          ],
          "internalType": "struct TankMarket.MarketItem[]",
          "name": "",
          "type": "tuple[]"
        }
      ],
      "stateMutability": "view",
      "type": "function"
    },
    {
      "inputs": [],
      "name": "getMyItemsOnSell",
      "outputs": [
        {
          "components": [
            {
              "internalType": "uint256",
              "name": "itemId",
              "type": "uint256"
            },
            {
              "internalType": "uint256",
              "name": "tokenId",
              "type": "uint256"
            },
            {
              "internalType": "address",
              "name": "seller",
              "type": "address"
            },
            {
              "internalType": "address",
              "name": "owner",
              "type": "address"
            },
            {
              "internalType": "uint256",
              "name": "price",
              "type": "uint256"
            },
            {
              "internalType": "bool",
              "name": "sold",
              "type": "bool"
            }
          ],
          "internalType": "struct TankMarket.MarketItem[]",
          "name": "",
          "type": "tuple[]"
        }
      ],
      "stateMutability": "view",
      "type": "function"
    },
    {
      "inputs": [
        {
          "internalType": "address",
          "name": "",
          "type": "address"
        },
        {
          "internalType": "address",
          "name": "",
          "type": "address"
        },
        {
          "internalType": "uint256",
          "name": "",
          "type": "uint256"
        },
        {
          "internalType": "bytes",
          "name": "",
          "type": "bytes"
        }
      ],
      "name": "onERC721Received",
      "outputs": [
        {
          "internalType": "bytes4",
          "name": "",
          "type": "bytes4"
        }
      ],
      "stateMutability": "nonpayable",
      "type": "function"
    },
    {
      "inputs": [],
      "name": "owner",
      "outputs": [
        {
          "internalType": "address",
          "name": "",
          "type": "address"
        }
      ],
      "stateMutability": "view",
      "type": "function"
    },
    {
      "inputs": [],
      "name": "renounceOwnership",
      "outputs": [],
      "stateMutability": "nonpayable",
      "type": "function"
    },
    {
      "inputs": [
        {
          "internalType": "uint256",
          "name": "itemId",
          "type": "uint256"
        }
      ],
      "name": "sellMarketItem",
      "outputs": [],
      "stateMutability": "nonpayable",
      "type": "function"
    },
    {
      "inputs": [
        {
          "internalType": "address",
          "name": "newOwner",
          "type": "address"
        }
      ],
      "name": "transferOwnership",
      "outputs": [],
      "stateMutability": "nonpayable",
      "type": "function"
    }
  ],
  "bytecode": "0x60806040523480156200001157600080fd5b5060405162002811380380620028118339818101604052810190620000379190620001ea565b620000576200004b620000f060201b60201c565b620000f860201b60201c565b600180819055508260048190555081600560006101000a81548173ffffffffffffffffffffffffffffffffffffffff021916908373ffffffffffffffffffffffffffffffffffffffff16021790555080600660006101000a81548173ffffffffffffffffffffffffffffffffffffffff021916908373ffffffffffffffffffffffffffffffffffffffff160217905550505050620002b2565b600033905090565b60008060009054906101000a900473ffffffffffffffffffffffffffffffffffffffff169050816000806101000a81548173ffffffffffffffffffffffffffffffffffffffff021916908373ffffffffffffffffffffffffffffffffffffffff1602179055508173ffffffffffffffffffffffffffffffffffffffff168173ffffffffffffffffffffffffffffffffffffffff167f8be0079c531659141344cd1fd0a4f28419497f9722a3daafe3b4186f6b6457e060405160405180910390a35050565b600081519050620001cd816200027e565b92915050565b600081519050620001e48162000298565b92915050565b6000806000606084860312156200020057600080fd5b60006200021086828701620001d3565b93505060206200022386828701620001bc565b92505060406200023686828701620001bc565b9150509250925092565b60006200024d8262000254565b9050919050565b600073ffffffffffffffffffffffffffffffffffffffff82169050919050565b6000819050919050565b620002898162000240565b81146200029557600080fd5b50565b620002a38162000274565b8114620002af57600080fd5b50565b61254f80620002c26000396000f3fe608060405234801561001057600080fd5b506004361061009e5760003560e01c80638da5cb5b116100665780638da5cb5b1461013557806391ddfe0a14610153578063ab66893a1461016f578063c5fb207d1461018d578063f2fde38b146101ab5761009e565b8063150b7a02146100a357806329aa3a42146100d3578063361c1995146100f157806354acffb11461010d578063715018a61461012b575b600080fd5b6100bd60048036038101906100b891906119ea565b6101c7565b6040516100ca9190611e93565b60405180910390f35b6100db6101db565b6040516100e89190611e71565b60405180910390f35b61010b60048036038101906101069190611ae0565b610452565b005b610115610acb565b6040516101229190611fce565b60405180910390f35b610133610ad5565b005b61013d610b5d565b60405161014a9190611db1565b60405180910390f35b61016d60048036038101906101689190611a8e565b610b86565b005b610177610fff565b6040516101849190611e71565b60405180910390f35b61019561133d565b6040516101a29190611e71565b60405180910390f35b6101c560048036038101906101c09190611998565b61167b565b005b600063150b7a0260e01b9050949350505050565b606060006101e96002611773565b905060006101f76003611773565b6102016002611773565b61020b91906120df565b90506000808267ffffffffffffffff811115610250577f4e487b7100000000000000000000000000000000000000000000000000000000600052604160045260246000fd5b60405190808252806020026020018201604052801561028957816020015b610276611863565b81526020019060019003908161026e5790505b50905060005b8481101561044757600760006001836102a89190612089565b815260200190815260200160002060050160009054906101000a900460ff16610434576000600760006001846102de9190612089565b81526020019081526020016000209050806040518060c001604052908160008201548152602001600182015481526020016002820160009054906101000a900473ffffffffffffffffffffffffffffffffffffffff1673ffffffffffffffffffffffffffffffffffffffff1673ffffffffffffffffffffffffffffffffffffffff1681526020016003820160009054906101000a900473ffffffffffffffffffffffffffffffffffffffff1673ffffffffffffffffffffffffffffffffffffffff1673ffffffffffffffffffffffffffffffffffffffff168152602001600482015481526020016005820160009054906101000a900460ff161515151581525050838581518110610418577f4e487b7100000000000000000000000000000000000000000000000000000000600052603260045260246000fd5b60200260200101819052506001846104309190612089565b9350505b808061043f906121c7565b91505061028f565b508094505050505090565b60026001541415610498576040517f08c379a000000000000000000000000000000000000000000000000000000000815260040161048f90611f6e565b60405180910390fd5b6002600181905550600081116104e3576040517f08c379a00000000000000000000000000000000000000000000000000000000081526004016104da90611f8e565b60405180910390fd5b600454600560009054906101000a900473ffffffffffffffffffffffffffffffffffffffff1673ffffffffffffffffffffffffffffffffffffffff166370a08231336040518263ffffffff1660e01b81526004016105419190611db1565b60206040518083038186803b15801561055957600080fd5b505afa15801561056d573d6000803e3d6000fd5b505050506040513d601f19601f820116820180604052508101906105919190611ab7565b10156105d2576040517f08c379a00000000000000000000000000000000000000000000000000000000081526004016105c990611f2e565b60405180910390fd5b600454600560009054906101000a900473ffffffffffffffffffffffffffffffffffffffff1673ffffffffffffffffffffffffffffffffffffffff1663dd62ed3e33306040518363ffffffff1660e01b8152600401610632929190611dcc565b60206040518083038186803b15801561064a57600080fd5b505afa15801561065e573d6000803e3d6000fd5b505050506040513d601f19601f820116820180604052508101906106829190611ab7565b10156106c3576040517f08c379a00000000000000000000000000000000000000000000000000000000081526004016106ba90611f4e565b60405180910390fd5b3073ffffffffffffffffffffffffffffffffffffffff16600660009054906101000a900473ffffffffffffffffffffffffffffffffffffffff1673ffffffffffffffffffffffffffffffffffffffff1663081812fc846040518263ffffffff1660e01b81526004016107359190611fce565b60206040518083038186803b15801561074d57600080fd5b505afa158015610761573d6000803e3d6000fd5b505050506040513d601f19601f8201168201806040525081019061078591906119c1565b73ffffffffffffffffffffffffffffffffffffffff16146107db576040517f08c379a00000000000000000000000000000000000000000000000000000000081526004016107d290611eae565b60405180910390fd5b600560009054906101000a900473ffffffffffffffffffffffffffffffffffffffff1673ffffffffffffffffffffffffffffffffffffffff166323b872dd33610822610b5d565b6004546040518463ffffffff1660e01b815260040161084393929190611df5565b602060405180830381600087803b15801561085d57600080fd5b505af1158015610871573d6000803e3d6000fd5b505050506040513d601f19601f820116820180604052508101906108959190611a65565b50600660009054906101000a900473ffffffffffffffffffffffffffffffffffffffff1673ffffffffffffffffffffffffffffffffffffffff166342842e0e3330856040518463ffffffff1660e01b81526004016108f593929190611df5565b600060405180830381600087803b15801561090f57600080fd5b505af1158015610923573d6000803e3d6000fd5b505050506109316002611781565b600061093d6002611773565b90506040518060c001604052808281526020018481526020013373ffffffffffffffffffffffffffffffffffffffff168152602001600073ffffffffffffffffffffffffffffffffffffffff1681526020018381526020016000151581525060076000838152602001908152602001600020600082015181600001556020820151816001015560408201518160020160006101000a81548173ffffffffffffffffffffffffffffffffffffffff021916908373ffffffffffffffffffffffffffffffffffffffff16021790555060608201518160030160006101000a81548173ffffffffffffffffffffffffffffffffffffffff021916908373ffffffffffffffffffffffffffffffffffffffff1602179055506080820151816004015560a08201518160050160006101000a81548160ff02191690831515021790555090505082817f4a29ff6f650682addfdf8030b3eeb4610ec651b42d8603f2527633347f9489c9336000866000604051610ab79493929190611e2c565b60405180910390a350600180819055505050565b6000600454905090565b610add611797565b73ffffffffffffffffffffffffffffffffffffffff16610afb610b5d565b73ffffffffffffffffffffffffffffffffffffffff1614610b51576040517f08c379a0000000000000000000000000000000000000000000000000000000008152600401610b4890611f0e565b60405180910390fd5b610b5b600061179f565b565b60008060009054906101000a900473ffffffffffffffffffffffffffffffffffffffff16905090565b60026001541415610bcc576040517f08c379a0000000000000000000000000000000000000000000000000000000008152600401610bc390611f6e565b60405180910390fd5b600260018190555060006007600083815260200190815260200160002060040154905060006007600084815260200190815260200160002060010154905060006007600085815260200190815260200160002060020160009054906101000a900473ffffffffffffffffffffffffffffffffffffffff16905082600560009054906101000a900473ffffffffffffffffffffffffffffffffffffffff1673ffffffffffffffffffffffffffffffffffffffff166370a08231336040518263ffffffff1660e01b8152600401610ca19190611db1565b60206040518083038186803b158015610cb957600080fd5b505afa158015610ccd573d6000803e3d6000fd5b505050506040513d601f19601f82011682018060405250810190610cf19190611ab7565b1015610d32576040517f08c379a0000000000000000000000000000000000000000000000000000000008152600401610d2990611eee565b60405180910390fd5b82600560009054906101000a900473ffffffffffffffffffffffffffffffffffffffff1673ffffffffffffffffffffffffffffffffffffffff1663dd62ed3e33306040518363ffffffff1660e01b8152600401610d90929190611dcc565b60206040518083038186803b158015610da857600080fd5b505afa158015610dbc573d6000803e3d6000fd5b505050506040513d601f19601f82011682018060405250810190610de09190611ab7565b1015610e21576040517f08c379a0000000000000000000000000000000000000000000000000000000008152600401610e1890611fae565b60405180910390fd5b600560009054906101000a900473ffffffffffffffffffffffffffffffffffffffff1673ffffffffffffffffffffffffffffffffffffffff166323b872dd3383866040518463ffffffff1660e01b8152600401610e8093929190611df5565b602060405180830381600087803b158015610e9a57600080fd5b505af1158015610eae573d6000803e3d6000fd5b505050506040513d601f19601f82011682018060405250810190610ed29190611a65565b50600660009054906101000a900473ffffffffffffffffffffffffffffffffffffffff1673ffffffffffffffffffffffffffffffffffffffff166342842e0e3033856040518463ffffffff1660e01b8152600401610f3293929190611df5565b600060405180830381600087803b158015610f4c57600080fd5b505af1158015610f60573d6000803e3d6000fd5b50505050336007600086815260200190815260200160002060030160006101000a81548173ffffffffffffffffffffffffffffffffffffffff021916908373ffffffffffffffffffffffffffffffffffffffff16021790555060016007600086815260200190815260200160002060050160006101000a81548160ff021916908315150217905550610ff26003611781565b5050506001808190555050565b6060600061100d6002611773565b905060008060005b838110156110b6573373ffffffffffffffffffffffffffffffffffffffff16600760006001846110459190612089565b815260200190815260200160002060020160009054906101000a900473ffffffffffffffffffffffffffffffffffffffff1673ffffffffffffffffffffffffffffffffffffffff1614156110a3576001836110a09190612089565b92505b80806110ae906121c7565b915050611015565b5060008267ffffffffffffffff8111156110f9577f4e487b7100000000000000000000000000000000000000000000000000000000600052604160045260246000fd5b60405190808252806020026020018201604052801561113257816020015b61111f611863565b8152602001906001900390816111175790505b50905060005b84811015611332573373ffffffffffffffffffffffffffffffffffffffff16600760006001846111689190612089565b815260200190815260200160002060020160009054906101000a900473ffffffffffffffffffffffffffffffffffffffff1673ffffffffffffffffffffffffffffffffffffffff16141561131f576000600760006001846111c99190612089565b81526020019081526020016000209050806040518060c001604052908160008201548152602001600182015481526020016002820160009054906101000a900473ffffffffffffffffffffffffffffffffffffffff1673ffffffffffffffffffffffffffffffffffffffff1673ffffffffffffffffffffffffffffffffffffffff1681526020016003820160009054906101000a900473ffffffffffffffffffffffffffffffffffffffff1673ffffffffffffffffffffffffffffffffffffffff1673ffffffffffffffffffffffffffffffffffffffff168152602001600482015481526020016005820160009054906101000a900460ff161515151581525050838581518110611303577f4e487b7100000000000000000000000000000000000000000000000000000000600052603260045260246000fd5b602002602001018190525060018461131b9190612089565b9350505b808061132a906121c7565b915050611138565b508094505050505090565b6060600061134b6002611773565b905060008060005b838110156113f4573373ffffffffffffffffffffffffffffffffffffffff16600760006001846113839190612089565b815260200190815260200160002060030160009054906101000a900473ffffffffffffffffffffffffffffffffffffffff1673ffffffffffffffffffffffffffffffffffffffff1614156113e1576001836113de9190612089565b92505b80806113ec906121c7565b915050611353565b5060008267ffffffffffffffff811115611437577f4e487b7100000000000000000000000000000000000000000000000000000000600052604160045260246000fd5b60405190808252806020026020018201604052801561147057816020015b61145d611863565b8152602001906001900390816114555790505b50905060005b84811015611670573373ffffffffffffffffffffffffffffffffffffffff16600760006001846114a69190612089565b815260200190815260200160002060030160009054906101000a900473ffffffffffffffffffffffffffffffffffffffff1673ffffffffffffffffffffffffffffffffffffffff16141561165d576000600760006001846115079190612089565b81526020019081526020016000209050806040518060c001604052908160008201548152602001600182015481526020016002820160009054906101000a900473ffffffffffffffffffffffffffffffffffffffff1673ffffffffffffffffffffffffffffffffffffffff1673ffffffffffffffffffffffffffffffffffffffff1681526020016003820160009054906101000a900473ffffffffffffffffffffffffffffffffffffffff1673ffffffffffffffffffffffffffffffffffffffff1673ffffffffffffffffffffffffffffffffffffffff168152602001600482015481526020016005820160009054906101000a900460ff161515151581525050838581518110611641577f4e487b7100000000000000000000000000000000000000000000000000000000600052603260045260246000fd5b60200260200101819052506001846116599190612089565b9350505b8080611668906121c7565b915050611476565b508094505050505090565b611683611797565b73ffffffffffffffffffffffffffffffffffffffff166116a1610b5d565b73ffffffffffffffffffffffffffffffffffffffff16146116f7576040517f08c379a00000000000000000000000000000000000000000000000000000000081526004016116ee90611f0e565b60405180910390fd5b600073ffffffffffffffffffffffffffffffffffffffff168173ffffffffffffffffffffffffffffffffffffffff161415611767576040517f08c379a000000000000000000000000000000000000000000000000000000000815260040161175e90611ece565b60405180910390fd5b6117708161179f565b50565b600081600001549050919050565b6001816000016000828254019250508190555050565b600033905090565b60008060009054906101000a900473ffffffffffffffffffffffffffffffffffffffff169050816000806101000a81548173ffffffffffffffffffffffffffffffffffffffff021916908373ffffffffffffffffffffffffffffffffffffffff1602179055508173ffffffffffffffffffffffffffffffffffffffff168173ffffffffffffffffffffffffffffffffffffffff167f8be0079c531659141344cd1fd0a4f28419497f9722a3daafe3b4186f6b6457e060405160405180910390a35050565b6040518060c001604052806000815260200160008152602001600073ffffffffffffffffffffffffffffffffffffffff168152602001600073ffffffffffffffffffffffffffffffffffffffff168152602001600081526020016000151581525090565b60006118da6118d58461200e565b611fe9565b9050828152602081018484840111156118f257600080fd5b6118fd848285612187565b509392505050565b600081359050611914816124d4565b92915050565b600081519050611929816124d4565b92915050565b60008151905061193e816124eb565b92915050565b600082601f83011261195557600080fd5b81356119658482602086016118c7565b91505092915050565b60008135905061197d81612502565b92915050565b60008151905061199281612502565b92915050565b6000602082840312156119aa57600080fd5b60006119b884828501611905565b91505092915050565b6000602082840312156119d357600080fd5b60006119e18482850161191a565b91505092915050565b60008060008060808587031215611a0057600080fd5b6000611a0e87828801611905565b9450506020611a1f87828801611905565b9350506040611a308782880161196e565b925050606085013567ffffffffffffffff811115611a4d57600080fd5b611a5987828801611944565b91505092959194509250565b600060208284031215611a7757600080fd5b6000611a858482850161192f565b91505092915050565b600060208284031215611aa057600080fd5b6000611aae8482850161196e565b91505092915050565b600060208284031215611ac957600080fd5b6000611ad784828501611983565b91505092915050565b60008060408385031215611af357600080fd5b6000611b018582860161196e565b9250506020611b128582860161196e565b9150509250929050565b6000611b288383611d18565b60c08301905092915050565b611b3d81612113565b82525050565b611b4c81612113565b82525050565b6000611b5d8261204f565b611b678185612067565b9350611b728361203f565b8060005b83811015611ba3578151611b8a8882611b1c565b9750611b958361205a565b925050600181019050611b76565b5085935050505092915050565b611bb981612125565b82525050565b611bc881612125565b82525050565b611bd781612131565b82525050565b6000611bea603283612078565b9150611bf58261227f565b604082019050919050565b6000611c0d602683612078565b9150611c18826122ce565b604082019050919050565b6000611c30602983612078565b9150611c3b8261231d565b604082019050919050565b6000611c53602083612078565b9150611c5e8261236c565b602082019050919050565b6000611c76602483612078565b9150611c8182612395565b604082019050919050565b6000611c99603683612078565b9150611ca4826123e4565b604082019050919050565b6000611cbc601f83612078565b9150611cc782612433565b602082019050919050565b6000611cdf601c83612078565b9150611cea8261245c565b602082019050919050565b6000611d02603a83612078565b9150611d0d82612485565b604082019050919050565b60c082016000820151611d2e6000850182611d93565b506020820151611d416020850182611d93565b506040820151611d546040850182611b34565b506060820151611d676060850182611b34565b506080820151611d7a6080850182611d93565b5060a0820151611d8d60a0850182611bb0565b50505050565b611d9c8161217d565b82525050565b611dab8161217d565b82525050565b6000602082019050611dc66000830184611b43565b92915050565b6000604082019050611de16000830185611b43565b611dee6020830184611b43565b9392505050565b6000606082019050611e0a6000830186611b43565b611e176020830185611b43565b611e246040830184611da2565b949350505050565b6000608082019050611e416000830187611b43565b611e4e6020830186611b43565b611e5b6040830185611da2565b611e686060830184611bbf565b95945050505050565b60006020820190508181036000830152611e8b8184611b52565b905092915050565b6000602082019050611ea86000830184611bce565b92915050565b60006020820190508181036000830152611ec781611bdd565b9050919050565b60006020820190508181036000830152611ee781611c00565b9050919050565b60006020820190508181036000830152611f0781611c23565b9050919050565b60006020820190508181036000830152611f2781611c46565b9050919050565b60006020820190508181036000830152611f4781611c69565b9050919050565b60006020820190508181036000830152611f6781611c8c565b9050919050565b60006020820190508181036000830152611f8781611caf565b9050919050565b60006020820190508181036000830152611fa781611cd2565b9050919050565b60006020820190508181036000830152611fc781611cf5565b9050919050565b6000602082019050611fe36000830184611da2565b92915050565b6000611ff3612004565b9050611fff8282612196565b919050565b6000604051905090565b600067ffffffffffffffff8211156120295761202861223f565b5b6120328261226e565b9050602081019050919050565b6000819050602082019050919050565b600081519050919050565b6000602082019050919050565b600082825260208201905092915050565b600082825260208201905092915050565b60006120948261217d565b915061209f8361217d565b9250827fffffffffffffffffffffffffffffffffffffffffffffffffffffffffffffffff038211156120d4576120d3612210565b5b828201905092915050565b60006120ea8261217d565b91506120f58361217d565b92508282101561210857612107612210565b5b828203905092915050565b600061211e8261215d565b9050919050565b60008115159050919050565b60007fffffffff0000000000000000000000000000000000000000000000000000000082169050919050565b600073ffffffffffffffffffffffffffffffffffffffff82169050919050565b6000819050919050565b82818337600083830152505050565b61219f8261226e565b810181811067ffffffffffffffff821117156121be576121bd61223f565b5b80604052505050565b60006121d28261217d565b91507fffffffffffffffffffffffffffffffffffffffffffffffffffffffffffffffff82141561220557612204612210565b5b600182019050919050565b7f4e487b7100000000000000000000000000000000000000000000000000000000600052601160045260246000fd5b7f4e487b7100000000000000000000000000000000000000000000000000000000600052604160045260246000fd5b6000601f19601f8301169050919050565b7f596f75206d75737420617070726f766520666f72206d61726b657420746f207460008201527f72616e7366657220796f757220746f6b656e0000000000000000000000000000602082015250565b7f4f776e61626c653a206e6577206f776e657220697320746865207a65726f206160008201527f6464726573730000000000000000000000000000000000000000000000000000602082015250565b7f596f75722062616c616e6365206e6f7420656e6f75676820666f72206275792060008201527f74686973206974656d0000000000000000000000000000000000000000000000602082015250565b7f4f776e61626c653a2063616c6c6572206973206e6f7420746865206f776e6572600082015250565b7f596f75722062616c616e6365206e6f7420656e6f756768206c697374696e672060008201527f636f737400000000000000000000000000000000000000000000000000000000602082015250565b7f596f75206d75737420617070726f766520666f7220636f6e747261637420746f60008201527f207472616e73666572206c697374696e6720636f737400000000000000000000602082015250565b7f5265656e7472616e637947756172643a207265656e7472616e742063616c6c00600082015250565b7f5072696365206d757374206265206174206c6561737420312077656900000000600082015250565b7f596f75206d75737420616c6c6f77616e6365206d61726b657420746f2074726160008201527f6e7366657220796f757220746f6b656e20746f2073656c6c6572000000000000602082015250565b6124dd81612113565b81146124e857600080fd5b50565b6124f481612125565b81146124ff57600080fd5b50565b61250b8161217d565b811461251657600080fd5b5056fea2646970667358221220c858a6b8f973f7174a8ed6051a792fb4b98c1258fb48304599d094269c1a2c5264736f6c63430008040033",
  "linkReferences": {},
  "deployedLinkReferences": {}
}