{
  "_format": "hh-sol-artifact-1",
  "contractName": "TankNFT",
  "sourceName": "contracts/TankNFT.sol",
  "abi": [
    {
      "inputs": [
        {
          "internalType": "string",
          "name": "name",
          "type": "string"
        },
        {
          "internalType": "string",
          "name": "symbol",
          "type": "string"
        },
        {
          "internalType": "uint256",
          "name": "creatingCost",
          "type": "uint256"
        },
        {
          "internalType": "address",
          "name": "tokenAddress",
          "type": "address"
        }
      ],
      "stateMutability": "nonpayable",
      "type": "constructor"
    },
    {
      "anonymous": false,
      "inputs": [
        {
          "indexed": true,
          "internalType": "address",
          "name": "owner",
          "type": "address"
        },
        {
          "indexed": true,
          "internalType": "address",
          "name": "approved",
          "type": "address"
        },
        {
          "indexed": true,
          "internalType": "uint256",
          "name": "tokenId",
          "type": "uint256"
        }
      ],
      "name": "Approval",
      "type": "event"
    },
    {
      "anonymous": false,
      "inputs": [
        {
          "indexed": true,
          "internalType": "address",
          "name": "owner",
          "type": "address"
        },
        {
          "indexed": true,
          "internalType": "address",
          "name": "operator",
          "type": "address"
        },
        {
          "indexed": false,
          "internalType": "bool",
          "name": "approved",
          "type": "bool"
        }
      ],
      "name": "ApprovalForAll",
      "type": "event"
    },
    {
      "anonymous": false,
      "inputs": [
        {
          "indexed": true,
          "internalType": "address",
          "name": "previousOwner",
          "type": "address"
        },
        {
          "indexed": true,
          "internalType": "address",
          "name": "newOwner",
          "type": "address"
        }
      ],
      "name": "OwnershipTransferred",
      "type": "event"
    },
    {
      "anonymous": false,
      "inputs": [
        {
          "indexed": true,
          "internalType": "address",
          "name": "from",
          "type": "address"
        },
        {
          "indexed": true,
          "internalType": "address",
          "name": "to",
          "type": "address"
        },
        {
          "indexed": true,
          "internalType": "uint256",
          "name": "tokenId",
          "type": "uint256"
        }
      ],
      "name": "Transfer",
      "type": "event"
    },
    {
      "inputs": [
        {
          "internalType": "address",
          "name": "to",
          "type": "address"
        },
        {
          "internalType": "uint256",
          "name": "tokenId",
          "type": "uint256"
        }
      ],
      "name": "approve",
      "outputs": [],
      "stateMutability": "nonpayable",
      "type": "function"
    },
    {
      "inputs": [
        {
          "internalType": "address",
          "name": "owner",
          "type": "address"
        }
      ],
      "name": "balanceOf",
      "outputs": [
        {
          "internalType": "uint256",
          "name": "",
          "type": "uint256"
        }
      ],
      "stateMutability": "view",
      "type": "function"
    },
    {
      "inputs": [
        {
          "internalType": "uint256",
          "name": "tokenId",
          "type": "uint256"
        }
      ],
      "name": "burn",
      "outputs": [],
      "stateMutability": "nonpayable",
      "type": "function"
    },
    {
      "inputs": [
        {
          "internalType": "string",
          "name": "tokenURI",
          "type": "string"
        }
      ],
      "name": "create",
      "outputs": [
        {
          "internalType": "uint256",
          "name": "",
          "type": "uint256"
        }
      ],
      "stateMutability": "nonpayable",
      "type": "function"
    },
    {
      "inputs": [
        {
          "internalType": "uint256",
          "name": "tokenId",
          "type": "uint256"
        }
      ],
      "name": "getApproved",
      "outputs": [
        {
          "internalType": "address",
          "name": "",
          "type": "address"
        }
      ],
      "stateMutability": "view",
      "type": "function"
    },
    {
      "inputs": [],
      "name": "getCreatingCost",
      "outputs": [
        {
          "internalType": "uint256",
          "name": "",
          "type": "uint256"
        }
      ],
      "stateMutability": "view",
      "type": "function"
    },
    {
      "inputs": [
        {
          "internalType": "address",
          "name": "owner",
          "type": "address"
        },
        {
          "internalType": "address",
          "name": "operator",
          "type": "address"
        }
      ],
      "name": "isApprovedForAll",
      "outputs": [
        {
          "internalType": "bool",
          "name": "",
          "type": "bool"
        }
      ],
      "stateMutability": "view",
      "type": "function"
    },
    {
      "inputs": [],
      "name": "name",
      "outputs": [
        {
          "internalType": "string",
          "name": "",
          "type": "string"
        }
      ],
      "stateMutability": "view",
      "type": "function"
    },
    {
      "inputs": [],
      "name": "owner",
      "outputs": [
        {
          "internalType": "address",
          "name": "",
          "type": "address"
        }
      ],
      "stateMutability": "view",
      "type": "function"
    },
    {
      "inputs": [
        {
          "internalType": "uint256",
          "name": "tokenId",
          "type": "uint256"
        }
      ],
      "name": "ownerOf",
      "outputs": [
        {
          "internalType": "address",
          "name": "",
          "type": "address"
        }
      ],
      "stateMutability": "view",
      "type": "function"
    },
    {
      "inputs": [],
      "name": "renounceOwnership",
      "outputs": [],
      "stateMutability": "nonpayable",
      "type": "function"
    },
    {
      "inputs": [
        {
          "internalType": "address",
          "name": "from",
          "type": "address"
        },
        {
          "internalType": "address",
          "name": "to",
          "type": "address"
        },
        {
          "internalType": "uint256",
          "name": "tokenId",
          "type": "uint256"
        }
      ],
      "name": "safeTransferFrom",
      "outputs": [],
      "stateMutability": "nonpayable",
      "type": "function"
    },
    {
      "inputs": [
        {
          "internalType": "address",
          "name": "from",
          "type": "address"
        },
        {
          "internalType": "address",
          "name": "to",
          "type": "address"
        },
        {
          "internalType": "uint256",
          "name": "tokenId",
          "type": "uint256"
        },
        {
          "internalType": "bytes",
          "name": "_data",
          "type": "bytes"
        }
      ],
      "name": "safeTransferFrom",
      "outputs": [],
      "stateMutability": "nonpayable",
      "type": "function"
    },
    {
      "inputs": [
        {
          "internalType": "address",
          "name": "operator",
          "type": "address"
        },
        {
          "internalType": "bool",
          "name": "approved",
          "type": "bool"
        }
      ],
      "name": "setApprovalForAll",
      "outputs": [],
      "stateMutability": "nonpayable",
      "type": "function"
    },
    {
      "inputs": [
        {
          "internalType": "bytes4",
          "name": "interfaceId",
          "type": "bytes4"
        }
      ],
      "name": "supportsInterface",
      "outputs": [
        {
          "internalType": "bool",
          "name": "",
          "type": "bool"
        }
      ],
      "stateMutability": "view",
      "type": "function"
    },
    {
      "inputs": [],
      "name": "symbol",
      "outputs": [
        {
          "internalType": "string",
          "name": "",
          "type": "string"
        }
      ],
      "stateMutability": "view",
      "type": "function"
    },
    {
      "inputs": [
        {
          "internalType": "uint256",
          "name": "index",
          "type": "uint256"
        }
      ],
      "name": "tokenByIndex",
      "outputs": [
        {
          "internalType": "uint256",
          "name": "",
          "type": "uint256"
        }
      ],
      "stateMutability": "view",
      "type": "function"
    },
    {
      "inputs": [
        {
          "internalType": "address",
          "name": "owner",
          "type": "address"
        },
        {
          "internalType": "uint256",
          "name": "index",
          "type": "uint256"
        }
      ],
      "name": "tokenOfOwnerByIndex",
      "outputs": [
        {
          "internalType": "uint256",
          "name": "",
          "type": "uint256"
        }
      ],
      "stateMutability": "view",
      "type": "function"
    },
    {
      "inputs": [
        {
          "internalType": "uint256",
          "name": "tokenId",
          "type": "uint256"
        }
      ],
      "name": "tokenURI",
      "outputs": [
        {
          "internalType": "string",
          "name": "",
          "type": "string"
        }
      ],
      "stateMutability": "view",
      "type": "function"
    },
    {
      "inputs": [],
      "name": "totalSupply",
      "outputs": [
        {
          "internalType": "uint256",
          "name": "",
          "type": "uint256"
        }
      ],
      "stateMutability": "view",
      "type": "function"
    },
    {
      "inputs": [
        {
          "internalType": "address",
          "name": "from",
          "type": "address"
        },
        {
          "internalType": "address",
          "name": "to",
          "type": "address"
        },
        {
          "internalType": "uint256",
          "name": "tokenId",
          "type": "uint256"
        }
      ],
      "name": "transferFrom",
      "outputs": [],
      "stateMutability": "nonpayable",
      "type": "function"
    },
    {
      "inputs": [
        {
          "internalType": "address",
          "name": "newOwner",
          "type": "address"
        }
      ],
      "name": "transferOwnership",
      "outputs": [],
      "stateMutability": "nonpayable",
      "type": "function"
    }
  ],
  "bytecode": "0x60806040523480156200001157600080fd5b506040516200455b3803806200455b833981810160405281019062000037919062000305565b8383816000908051906020019062000051929190620001b5565b5080600190805190602001906200006a929190620001b5565b5050506200008d62000081620000e760201b60201c565b620000ef60201b60201c565b6001600c8190555081600e8190555080600f60006101000a81548173ffffffffffffffffffffffffffffffffffffffff021916908373ffffffffffffffffffffffffffffffffffffffff1602179055505050505062000585565b600033905090565b6000600b60009054906101000a900473ffffffffffffffffffffffffffffffffffffffff16905081600b60006101000a81548173ffffffffffffffffffffffffffffffffffffffff021916908373ffffffffffffffffffffffffffffffffffffffff1602179055508173ffffffffffffffffffffffffffffffffffffffff168173ffffffffffffffffffffffffffffffffffffffff167f8be0079c531659141344cd1fd0a4f28419497f9722a3daafe3b4186f6b6457e060405160405180910390a35050565b828054620001c39062000476565b90600052602060002090601f016020900481019282620001e7576000855562000233565b82601f106200020257805160ff191683800117855562000233565b8280016001018555821562000233579182015b828111156200023257825182559160200191906001019062000215565b5b50905062000242919062000246565b5090565b5b808211156200026157600081600090555060010162000247565b5090565b60006200027c6200027684620003cc565b620003a3565b9050828152602081018484840111156200029557600080fd5b620002a284828562000440565b509392505050565b600081519050620002bb8162000551565b92915050565b600082601f830112620002d357600080fd5b8151620002e584826020860162000265565b91505092915050565b600081519050620002ff816200056b565b92915050565b600080600080608085870312156200031c57600080fd5b600085015167ffffffffffffffff8111156200033757600080fd5b6200034587828801620002c1565b945050602085015167ffffffffffffffff8111156200036357600080fd5b6200037187828801620002c1565b93505060406200038487828801620002ee565b92505060606200039787828801620002aa565b91505092959194509250565b6000620003af620003c2565b9050620003bd8282620004ac565b919050565b6000604051905090565b600067ffffffffffffffff821115620003ea57620003e962000511565b5b620003f58262000540565b9050602081019050919050565b60006200040f8262000416565b9050919050565b600073ffffffffffffffffffffffffffffffffffffffff82169050919050565b6000819050919050565b60005b838110156200046057808201518184015260208101905062000443565b8381111562000470576000848401525b50505050565b600060028204905060018216806200048f57607f821691505b60208210811415620004a657620004a5620004e2565b5b50919050565b620004b78262000540565b810181811067ffffffffffffffff82111715620004d957620004d862000511565b5b80604052505050565b7f4e487b7100000000000000000000000000000000000000000000000000000000600052602260045260246000fd5b7f4e487b7100000000000000000000000000000000000000000000000000000000600052604160045260246000fd5b6000601f19601f8301169050919050565b6200055c8162000402565b81146200056857600080fd5b50565b620005768162000436565b81146200058257600080fd5b50565b613fc680620005956000396000f3fe608060405234801561001057600080fd5b50600436106101425760003560e01c806367453fa7116100b8578063a22cb4651161007c578063a22cb46514610377578063b6a46b3b14610393578063b88d4fde146103c3578063c87b56dd146103df578063e985e9c51461040f578063f2fde38b1461043f57610142565b806367453fa7146102e357806370a0823114610301578063715018a6146103315780638da5cb5b1461033b57806395d89b411461035957610142565b806323b872dd1161010a57806323b872dd146101ff5780632f745c591461021b57806342842e0e1461024b57806342966c68146102675780634f6ccce7146102835780636352211e146102b357610142565b806301ffc9a71461014757806306fdde0314610177578063081812fc14610195578063095ea7b3146101c557806318160ddd146101e1575b600080fd5b610161600480360381019061015c9190612b65565b61045b565b60405161016e919061314d565b60405180910390f35b61017f61046d565b60405161018c9190613168565b60405180910390f35b6101af60048036038101906101aa9190612bf8565b6104ff565b6040516101bc9190613086565b60405180910390f35b6101df60048036038101906101da9190612b00565b610584565b005b6101e961069c565b6040516101f6919061348a565b60405180910390f35b610219600480360381019061021491906129fa565b6106a9565b005b61023560048036038101906102309190612b00565b610709565b604051610242919061348a565b60405180910390f35b610265600480360381019061026091906129fa565b6107ae565b005b610281600480360381019061027c9190612bf8565b6107ce565b005b61029d60048036038101906102989190612bf8565b61082a565b6040516102aa919061348a565b60405180910390f35b6102cd60048036038101906102c89190612bf8565b6108c1565b6040516102da9190613086565b60405180910390f35b6102eb610973565b6040516102f8919061348a565b60405180910390f35b61031b60048036038101906103169190612995565b61097d565b604051610328919061348a565b60405180910390f35b610339610a35565b005b610343610abd565b6040516103509190613086565b60405180910390f35b610361610ae7565b60405161036e9190613168565b60405180910390f35b610391600480360381019061038c9190612ac4565b610b79565b005b6103ad60048036038101906103a89190612bb7565b610cfa565b6040516103ba919061348a565b60405180910390f35b6103dd60048036038101906103d89190612a49565b611022565b005b6103f960048036038101906103f49190612bf8565b611084565b6040516104069190613168565b60405180910390f35b610429600480360381019061042491906129be565b611096565b604051610436919061314d565b60405180910390f35b61045960048036038101906104549190612995565b61112a565b005b600061046682611222565b9050919050565b60606000805461047c906136e0565b80601f01602080910402602001604051908101604052809291908181526020018280546104a8906136e0565b80156104f55780601f106104ca576101008083540402835291602001916104f5565b820191906000526020600020905b8154815290600101906020018083116104d857829003601f168201915b5050505050905090565b600061050a8261129c565b610549576040517f08c379a00000000000000000000000000000000000000000000000000000000081526004016105409061336a565b60405180910390fd5b6004600083815260200190815260200160002060009054906101000a900473ffffffffffffffffffffffffffffffffffffffff169050919050565b600061058f826108c1565b90508073ffffffffffffffffffffffffffffffffffffffff168373ffffffffffffffffffffffffffffffffffffffff161415610600576040517f08c379a00000000000000000000000000000000000000000000000000000000081526004016105f7906133ea565b60405180910390fd5b8073ffffffffffffffffffffffffffffffffffffffff1661061f611308565b73ffffffffffffffffffffffffffffffffffffffff16148061064e575061064d81610648611308565b611096565b5b61068d576040517f08c379a00000000000000000000000000000000000000000000000000000000081526004016106849061328a565b60405180910390fd5b6106978383611310565b505050565b6000600880549050905090565b6106ba6106b4611308565b826113c9565b6106f9576040517f08c379a00000000000000000000000000000000000000000000000000000000081526004016106f09061340a565b60405180910390fd5b6107048383836114a7565b505050565b60006107148361097d565b8210610755576040517f08c379a000000000000000000000000000000000000000000000000000000000815260040161074c906131aa565b60405180910390fd5b600660008473ffffffffffffffffffffffffffffffffffffffff1673ffffffffffffffffffffffffffffffffffffffff168152602001908152602001600020600083815260200190815260200160002054905092915050565b6107c983838360405180602001604052806000815250611022565b505050565b6107df6107d9611308565b826113c9565b61081e576040517f08c379a00000000000000000000000000000000000000000000000000000000081526004016108159061346a565b60405180910390fd5b61082781611703565b50565b600061083461069c565b8210610875576040517f08c379a000000000000000000000000000000000000000000000000000000000815260040161086c9061342a565b60405180910390fd5b600882815481106108af577f4e487b7100000000000000000000000000000000000000000000000000000000600052603260045260246000fd5b90600052602060002001549050919050565b6000806002600084815260200190815260200160002060009054906101000a900473ffffffffffffffffffffffffffffffffffffffff169050600073ffffffffffffffffffffffffffffffffffffffff168173ffffffffffffffffffffffffffffffffffffffff16141561096a576040517f08c379a0000000000000000000000000000000000000000000000000000000008152600401610961906132ca565b60405180910390fd5b80915050919050565b6000600e54905090565b60008073ffffffffffffffffffffffffffffffffffffffff168273ffffffffffffffffffffffffffffffffffffffff1614156109ee576040517f08c379a00000000000000000000000000000000000000000000000000000000081526004016109e5906132aa565b60405180910390fd5b600360008373ffffffffffffffffffffffffffffffffffffffff1673ffffffffffffffffffffffffffffffffffffffff168152602001908152602001600020549050919050565b610a3d611308565b73ffffffffffffffffffffffffffffffffffffffff16610a5b610abd565b73ffffffffffffffffffffffffffffffffffffffff1614610ab1576040517f08c379a0000000000000000000000000000000000000000000000000000000008152600401610aa89061338a565b60405180910390fd5b610abb600061170f565b565b6000600b60009054906101000a900473ffffffffffffffffffffffffffffffffffffffff16905090565b606060018054610af6906136e0565b80601f0160208091040260200160405190810160405280929190818152602001828054610b22906136e0565b8015610b6f5780601f10610b4457610100808354040283529160200191610b6f565b820191906000526020600020905b815481529060010190602001808311610b5257829003601f168201915b5050505050905090565b610b81611308565b73ffffffffffffffffffffffffffffffffffffffff168273ffffffffffffffffffffffffffffffffffffffff161415610bef576040517f08c379a0000000000000000000000000000000000000000000000000000000008152600401610be69061324a565b60405180910390fd5b8060056000610bfc611308565b73ffffffffffffffffffffffffffffffffffffffff1673ffffffffffffffffffffffffffffffffffffffff16815260200190815260200160002060008473ffffffffffffffffffffffffffffffffffffffff1673ffffffffffffffffffffffffffffffffffffffff16815260200190815260200160002060006101000a81548160ff0219169083151502179055508173ffffffffffffffffffffffffffffffffffffffff16610ca9611308565b73ffffffffffffffffffffffffffffffffffffffff167f17307eab39ab6107e8899845ad3d59bd9653f200f220920489ca2b5937696c3183604051610cee919061314d565b60405180910390a35050565b60006002600c541415610d42576040517f08c379a0000000000000000000000000000000000000000000000000000000008152600401610d399061344a565b60405180910390fd5b6002600c81905550600e54600f60009054906101000a900473ffffffffffffffffffffffffffffffffffffffff1673ffffffffffffffffffffffffffffffffffffffff166370a08231336040518263ffffffff1660e01b8152600401610da89190613086565b60206040518083038186803b158015610dc057600080fd5b505afa158015610dd4573d6000803e3d6000fd5b505050506040513d601f19601f82011682018060405250810190610df89190612c21565b1015610e39576040517f08c379a0000000000000000000000000000000000000000000000000000000008152600401610e309061330a565b60405180910390fd5b600e54600f60009054906101000a900473ffffffffffffffffffffffffffffffffffffffff1673ffffffffffffffffffffffffffffffffffffffff1663dd62ed3e33306040518363ffffffff1660e01b8152600401610e999291906130a1565b60206040518083038186803b158015610eb157600080fd5b505afa158015610ec5573d6000803e3d6000fd5b505050506040513d601f19601f82011682018060405250810190610ee99190612c21565b1015610f2a576040517f08c379a0000000000000000000000000000000000000000000000000000000008152600401610f219061318a565b60405180910390fd5b600f60009054906101000a900473ffffffffffffffffffffffffffffffffffffffff1673ffffffffffffffffffffffffffffffffffffffff166323b872dd33610f71610abd565b600e546040518463ffffffff1660e01b8152600401610f92939291906130ca565b602060405180830381600087803b158015610fac57600080fd5b505af1158015610fc0573d6000803e3d6000fd5b505050506040513d601f19601f82011682018060405250810190610fe49190612b3c565b50610fef600d6117d5565b6000610ffb600d6117eb565b905061100733826117f9565b61101181846119c7565b809150506001600c81905550919050565b61103361102d611308565b836113c9565b611072576040517f08c379a00000000000000000000000000000000000000000000000000000000081526004016110699061340a565b60405180910390fd5b61107e84848484611a3b565b50505050565b606061108f82611a97565b9050919050565b6000600560008473ffffffffffffffffffffffffffffffffffffffff1673ffffffffffffffffffffffffffffffffffffffff16815260200190815260200160002060008373ffffffffffffffffffffffffffffffffffffffff1673ffffffffffffffffffffffffffffffffffffffff16815260200190815260200160002060009054906101000a900460ff16905092915050565b611132611308565b73ffffffffffffffffffffffffffffffffffffffff16611150610abd565b73ffffffffffffffffffffffffffffffffffffffff16146111a6576040517f08c379a000000000000000000000000000000000000000000000000000000000815260040161119d9061338a565b60405180910390fd5b600073ffffffffffffffffffffffffffffffffffffffff168173ffffffffffffffffffffffffffffffffffffffff161415611216576040517f08c379a000000000000000000000000000000000000000000000000000000000815260040161120d906131ea565b60405180910390fd5b61121f8161170f565b50565b60007f780e9d63000000000000000000000000000000000000000000000000000000007bffffffffffffffffffffffffffffffffffffffffffffffffffffffff1916827bffffffffffffffffffffffffffffffffffffffffffffffffffffffff19161480611295575061129482611be9565b5b9050919050565b60008073ffffffffffffffffffffffffffffffffffffffff166002600084815260200190815260200160002060009054906101000a900473ffffffffffffffffffffffffffffffffffffffff1673ffffffffffffffffffffffffffffffffffffffff1614159050919050565b600033905090565b816004600083815260200190815260200160002060006101000a81548173ffffffffffffffffffffffffffffffffffffffff021916908373ffffffffffffffffffffffffffffffffffffffff160217905550808273ffffffffffffffffffffffffffffffffffffffff16611383836108c1565b73ffffffffffffffffffffffffffffffffffffffff167f8c5be1e5ebec7d5bd14f71427d1e84f3dd0314c0f7b2291e5b200ac8c7c3b92560405160405180910390a45050565b60006113d48261129c565b611413576040517f08c379a000000000000000000000000000000000000000000000000000000000815260040161140a9061326a565b60405180910390fd5b600061141e836108c1565b90508073ffffffffffffffffffffffffffffffffffffffff168473ffffffffffffffffffffffffffffffffffffffff16148061148d57508373ffffffffffffffffffffffffffffffffffffffff16611475846104ff565b73ffffffffffffffffffffffffffffffffffffffff16145b8061149e575061149d8185611096565b5b91505092915050565b8273ffffffffffffffffffffffffffffffffffffffff166114c7826108c1565b73ffffffffffffffffffffffffffffffffffffffff161461151d576040517f08c379a0000000000000000000000000000000000000000000000000000000008152600401611514906133aa565b60405180910390fd5b600073ffffffffffffffffffffffffffffffffffffffff168273ffffffffffffffffffffffffffffffffffffffff16141561158d576040517f08c379a00000000000000000000000000000000000000000000000000000000081526004016115849061322a565b60405180910390fd5b611598838383611ccb565b6115a3600082611310565b6001600360008573ffffffffffffffffffffffffffffffffffffffff1673ffffffffffffffffffffffffffffffffffffffff16815260200190815260200160002060008282546115f391906135f6565b925050819055506001600360008473ffffffffffffffffffffffffffffffffffffffff1673ffffffffffffffffffffffffffffffffffffffff168152602001908152602001600020600082825461164a919061356f565b92505081905550816002600083815260200190815260200160002060006101000a81548173ffffffffffffffffffffffffffffffffffffffff021916908373ffffffffffffffffffffffffffffffffffffffff160217905550808273ffffffffffffffffffffffffffffffffffffffff168473ffffffffffffffffffffffffffffffffffffffff167fddf252ad1be2c89b69c2b068fc378daa952ba7f163c4a11628f55a4df523b3ef60405160405180910390a4505050565b61170c81611cdb565b50565b6000600b60009054906101000a900473ffffffffffffffffffffffffffffffffffffffff16905081600b60006101000a81548173ffffffffffffffffffffffffffffffffffffffff021916908373ffffffffffffffffffffffffffffffffffffffff1602179055508173ffffffffffffffffffffffffffffffffffffffff168173ffffffffffffffffffffffffffffffffffffffff167f8be0079c531659141344cd1fd0a4f28419497f9722a3daafe3b4186f6b6457e060405160405180910390a35050565b6001816000016000828254019250508190555050565b600081600001549050919050565b600073ffffffffffffffffffffffffffffffffffffffff168273ffffffffffffffffffffffffffffffffffffffff161415611869576040517f08c379a00000000000000000000000000000000000000000000000000000000081526004016118609061332a565b60405180910390fd5b6118728161129c565b156118b2576040517f08c379a00000000000000000000000000000000000000000000000000000000081526004016118a99061320a565b60405180910390fd5b6118be60008383611ccb565b6001600360008473ffffffffffffffffffffffffffffffffffffffff1673ffffffffffffffffffffffffffffffffffffffff168152602001908152602001600020600082825461190e919061356f565b92505081905550816002600083815260200190815260200160002060006101000a81548173ffffffffffffffffffffffffffffffffffffffff021916908373ffffffffffffffffffffffffffffffffffffffff160217905550808273ffffffffffffffffffffffffffffffffffffffff16600073ffffffffffffffffffffffffffffffffffffffff167fddf252ad1be2c89b69c2b068fc378daa952ba7f163c4a11628f55a4df523b3ef60405160405180910390a45050565b6119d08261129c565b611a0f576040517f08c379a0000000000000000000000000000000000000000000000000000000008152600401611a06906132ea565b60405180910390fd5b80600a60008481526020019081526020016000209080519060200190611a3692919061274f565b505050565b611a468484846114a7565b611a5284848484611d2e565b611a91576040517f08c379a0000000000000000000000000000000000000000000000000000000008152600401611a88906131ca565b60405180910390fd5b50505050565b6060611aa28261129c565b611ae1576040517f08c379a0000000000000000000000000000000000000000000000000000000008152600401611ad89061334a565b60405180910390fd5b6000600a60008481526020019081526020016000208054611b01906136e0565b80601f0160208091040260200160405190810160405280929190818152602001828054611b2d906136e0565b8015611b7a5780601f10611b4f57610100808354040283529160200191611b7a565b820191906000526020600020905b815481529060010190602001808311611b5d57829003601f168201915b505050505090506000611b8b611ec5565b9050600081511415611ba1578192505050611be4565b600082511115611bd6578082604051602001611bbe929190613062565b60405160208183030381529060405292505050611be4565b611bdf84611edc565b925050505b919050565b60007f80ac58cd000000000000000000000000000000000000000000000000000000007bffffffffffffffffffffffffffffffffffffffffffffffffffffffff1916827bffffffffffffffffffffffffffffffffffffffffffffffffffffffff19161480611cb457507f5b5e139f000000000000000000000000000000000000000000000000000000007bffffffffffffffffffffffffffffffffffffffffffffffffffffffff1916827bffffffffffffffffffffffffffffffffffffffffffffffffffffffff1916145b80611cc45750611cc382611f83565b5b9050919050565b611cd6838383611fed565b505050565b611ce481612101565b6000600a60008381526020019081526020016000208054611d04906136e0565b905014611d2b57600a60008281526020019081526020016000206000611d2a91906127d5565b5b50565b6000611d4f8473ffffffffffffffffffffffffffffffffffffffff16612212565b15611eb8578373ffffffffffffffffffffffffffffffffffffffff1663150b7a02611d78611308565b8786866040518563ffffffff1660e01b8152600401611d9a9493929190613101565b602060405180830381600087803b158015611db457600080fd5b505af1925050508015611de557506040513d601f19601f82011682018060405250810190611de29190612b8e565b60015b611e68573d8060008114611e15576040519150601f19603f3d011682016040523d82523d6000602084013e611e1a565b606091505b50600081511415611e60576040517f08c379a0000000000000000000000000000000000000000000000000000000008152600401611e57906131ca565b60405180910390fd5b805181602001fd5b63150b7a0260e01b7bffffffffffffffffffffffffffffffffffffffffffffffffffffffff1916817bffffffffffffffffffffffffffffffffffffffffffffffffffffffff191614915050611ebd565b600190505b949350505050565b606060405180602001604052806000815250905090565b6060611ee78261129c565b611f26576040517f08c379a0000000000000000000000000000000000000000000000000000000008152600401611f1d906133ca565b60405180910390fd5b6000611f30611ec5565b90506000815111611f505760405180602001604052806000815250611f7b565b80611f5a84612225565b604051602001611f6b929190613062565b6040516020818303038152906040525b915050919050565b60007f01ffc9a7000000000000000000000000000000000000000000000000000000007bffffffffffffffffffffffffffffffffffffffffffffffffffffffff1916827bffffffffffffffffffffffffffffffffffffffffffffffffffffffff1916149050919050565b611ff88383836123d2565b600073ffffffffffffffffffffffffffffffffffffffff168373ffffffffffffffffffffffffffffffffffffffff16141561203b57612036816123d7565b61207a565b8173ffffffffffffffffffffffffffffffffffffffff168373ffffffffffffffffffffffffffffffffffffffff1614612079576120788382612420565b5b5b600073ffffffffffffffffffffffffffffffffffffffff168273ffffffffffffffffffffffffffffffffffffffff1614156120bd576120b88161258d565b6120fc565b8273ffffffffffffffffffffffffffffffffffffffff168273ffffffffffffffffffffffffffffffffffffffff16146120fb576120fa82826126d0565b5b5b505050565b600061210c826108c1565b905061211a81600084611ccb565b612125600083611310565b6001600360008373ffffffffffffffffffffffffffffffffffffffff1673ffffffffffffffffffffffffffffffffffffffff168152602001908152602001600020600082825461217591906135f6565b925050819055506002600083815260200190815260200160002060006101000a81549073ffffffffffffffffffffffffffffffffffffffff021916905581600073ffffffffffffffffffffffffffffffffffffffff168273ffffffffffffffffffffffffffffffffffffffff167fddf252ad1be2c89b69c2b068fc378daa952ba7f163c4a11628f55a4df523b3ef60405160405180910390a45050565b600080823b905060008111915050919050565b6060600082141561226d576040518060400160405280600181526020017f300000000000000000000000000000000000000000000000000000000000000081525090506123cd565b600082905060005b6000821461229f57808061228890613743565b915050600a8261229891906135c5565b9150612275565b60008167ffffffffffffffff8111156122e1577f4e487b7100000000000000000000000000000000000000000000000000000000600052604160045260246000fd5b6040519080825280601f01601f1916602001820160405280156123135781602001600182028036833780820191505090505b5090505b600085146123c65760018261232c91906135f6565b9150600a8561233b919061378c565b6030612347919061356f565b60f81b818381518110612383577f4e487b7100000000000000000000000000000000000000000000000000000000600052603260045260246000fd5b60200101907effffffffffffffffffffffffffffffffffffffffffffffffffffffffffffff1916908160001a905350600a856123bf91906135c5565b9450612317565b8093505050505b919050565b505050565b6008805490506009600083815260200190815260200160002081905550600881908060018154018082558091505060019003906000526020600020016000909190919091505550565b6000600161242d8461097d565b61243791906135f6565b905060006007600084815260200190815260200160002054905081811461251c576000600660008673ffffffffffffffffffffffffffffffffffffffff1673ffffffffffffffffffffffffffffffffffffffff168152602001908152602001600020600084815260200190815260200160002054905080600660008773ffffffffffffffffffffffffffffffffffffffff1673ffffffffffffffffffffffffffffffffffffffff168152602001908152602001600020600084815260200190815260200160002081905550816007600083815260200190815260200160002081905550505b6007600084815260200190815260200160002060009055600660008573ffffffffffffffffffffffffffffffffffffffff1673ffffffffffffffffffffffffffffffffffffffff16815260200190815260200160002060008381526020019081526020016000206000905550505050565b600060016008805490506125a191906135f6565b90506000600960008481526020019081526020016000205490506000600883815481106125f7577f4e487b7100000000000000000000000000000000000000000000000000000000600052603260045260246000fd5b90600052602060002001549050806008838154811061263f577f4e487b7100000000000000000000000000000000000000000000000000000000600052603260045260246000fd5b9060005260206000200181905550816009600083815260200190815260200160002081905550600960008581526020019081526020016000206000905560088054806126b4577f4e487b7100000000000000000000000000000000000000000000000000000000600052603160045260246000fd5b6001900381819060005260206000200160009055905550505050565b60006126db8361097d565b905081600660008573ffffffffffffffffffffffffffffffffffffffff1673ffffffffffffffffffffffffffffffffffffffff168152602001908152602001600020600083815260200190815260200160002081905550806007600084815260200190815260200160002081905550505050565b82805461275b906136e0565b90600052602060002090601f01602090048101928261277d57600085556127c4565b82601f1061279657805160ff19168380011785556127c4565b828001600101855582156127c4579182015b828111156127c35782518255916020019190600101906127a8565b5b5090506127d19190612815565b5090565b5080546127e1906136e0565b6000825580601f106127f35750612812565b601f0160209004906000526020600020908101906128119190612815565b5b50565b5b8082111561282e576000816000905550600101612816565b5090565b6000612845612840846134ca565b6134a5565b90508281526020810184848401111561285d57600080fd5b61286884828561369e565b509392505050565b600061288361287e846134fb565b6134a5565b90508281526020810184848401111561289b57600080fd5b6128a684828561369e565b509392505050565b6000813590506128bd81613f34565b92915050565b6000813590506128d281613f4b565b92915050565b6000815190506128e781613f4b565b92915050565b6000813590506128fc81613f62565b92915050565b60008151905061291181613f62565b92915050565b600082601f83011261292857600080fd5b8135612938848260208601612832565b91505092915050565b600082601f83011261295257600080fd5b8135612962848260208601612870565b91505092915050565b60008135905061297a81613f79565b92915050565b60008151905061298f81613f79565b92915050565b6000602082840312156129a757600080fd5b60006129b5848285016128ae565b91505092915050565b600080604083850312156129d157600080fd5b60006129df858286016128ae565b92505060206129f0858286016128ae565b9150509250929050565b600080600060608486031215612a0f57600080fd5b6000612a1d868287016128ae565b9350506020612a2e868287016128ae565b9250506040612a3f8682870161296b565b9150509250925092565b60008060008060808587031215612a5f57600080fd5b6000612a6d878288016128ae565b9450506020612a7e878288016128ae565b9350506040612a8f8782880161296b565b925050606085013567ffffffffffffffff811115612aac57600080fd5b612ab887828801612917565b91505092959194509250565b60008060408385031215612ad757600080fd5b6000612ae5858286016128ae565b9250506020612af6858286016128c3565b9150509250929050565b60008060408385031215612b1357600080fd5b6000612b21858286016128ae565b9250506020612b328582860161296b565b9150509250929050565b600060208284031215612b4e57600080fd5b6000612b5c848285016128d8565b91505092915050565b600060208284031215612b7757600080fd5b6000612b85848285016128ed565b91505092915050565b600060208284031215612ba057600080fd5b6000612bae84828501612902565b91505092915050565b600060208284031215612bc957600080fd5b600082013567ffffffffffffffff811115612be357600080fd5b612bef84828501612941565b91505092915050565b600060208284031215612c0a57600080fd5b6000612c188482850161296b565b91505092915050565b600060208284031215612c3357600080fd5b6000612c4184828501612980565b91505092915050565b612c538161362a565b82525050565b612c628161363c565b82525050565b6000612c738261352c565b612c7d8185613542565b9350612c8d8185602086016136ad565b612c9681613879565b840191505092915050565b6000612cac82613537565b612cb68185613553565b9350612cc68185602086016136ad565b612ccf81613879565b840191505092915050565b6000612ce582613537565b612cef8185613564565b9350612cff8185602086016136ad565b80840191505092915050565b6000612d18603783613553565b9150612d238261388a565b604082019050919050565b6000612d3b602b83613553565b9150612d46826138d9565b604082019050919050565b6000612d5e603283613553565b9150612d6982613928565b604082019050919050565b6000612d81602683613553565b9150612d8c82613977565b604082019050919050565b6000612da4601c83613553565b9150612daf826139c6565b602082019050919050565b6000612dc7602483613553565b9150612dd2826139ef565b604082019050919050565b6000612dea601983613553565b9150612df582613a3e565b602082019050919050565b6000612e0d602c83613553565b9150612e1882613a67565b604082019050919050565b6000612e30603883613553565b9150612e3b82613ab6565b604082019050919050565b6000612e53602a83613553565b9150612e5e82613b05565b604082019050919050565b6000612e76602983613553565b9150612e8182613b54565b604082019050919050565b6000612e99602e83613553565b9150612ea482613ba3565b604082019050919050565b6000612ebc602583613553565b9150612ec782613bf2565b604082019050919050565b6000612edf602083613553565b9150612eea82613c41565b602082019050919050565b6000612f02603183613553565b9150612f0d82613c6a565b604082019050919050565b6000612f25602c83613553565b9150612f3082613cb9565b604082019050919050565b6000612f48602083613553565b9150612f5382613d08565b602082019050919050565b6000612f6b602983613553565b9150612f7682613d31565b604082019050919050565b6000612f8e602f83613553565b9150612f9982613d80565b604082019050919050565b6000612fb1602183613553565b9150612fbc82613dcf565b604082019050919050565b6000612fd4603183613553565b9150612fdf82613e1e565b604082019050919050565b6000612ff7602c83613553565b915061300282613e6d565b604082019050919050565b600061301a601f83613553565b915061302582613ebc565b602082019050919050565b600061303d603083613553565b915061304882613ee5565b604082019050919050565b61305c81613694565b82525050565b600061306e8285612cda565b915061307a8284612cda565b91508190509392505050565b600060208201905061309b6000830184612c4a565b92915050565b60006040820190506130b66000830185612c4a565b6130c36020830184612c4a565b9392505050565b60006060820190506130df6000830186612c4a565b6130ec6020830185612c4a565b6130f96040830184613053565b949350505050565b60006080820190506131166000830187612c4a565b6131236020830186612c4a565b6131306040830185613053565b81810360608301526131428184612c68565b905095945050505050565b60006020820190506131626000830184612c59565b92915050565b600060208201905081810360008301526131828184612ca1565b905092915050565b600060208201905081810360008301526131a381612d0b565b9050919050565b600060208201905081810360008301526131c381612d2e565b9050919050565b600060208201905081810360008301526131e381612d51565b9050919050565b6000602082019050818103600083015261320381612d74565b9050919050565b6000602082019050818103600083015261322381612d97565b9050919050565b6000602082019050818103600083015261324381612dba565b9050919050565b6000602082019050818103600083015261326381612ddd565b9050919050565b6000602082019050818103600083015261328381612e00565b9050919050565b600060208201905081810360008301526132a381612e23565b9050919050565b600060208201905081810360008301526132c381612e46565b9050919050565b600060208201905081810360008301526132e381612e69565b9050919050565b6000602082019050818103600083015261330381612e8c565b9050919050565b6000602082019050818103600083015261332381612eaf565b9050919050565b6000602082019050818103600083015261334381612ed2565b9050919050565b6000602082019050818103600083015261336381612ef5565b9050919050565b6000602082019050818103600083015261338381612f18565b9050919050565b600060208201905081810360008301526133a381612f3b565b9050919050565b600060208201905081810360008301526133c381612f5e565b9050919050565b600060208201905081810360008301526133e381612f81565b9050919050565b6000602082019050818103600083015261340381612fa4565b9050919050565b6000602082019050818103600083015261342381612fc7565b9050919050565b6000602082019050818103600083015261344381612fea565b9050919050565b600060208201905081810360008301526134638161300d565b9050919050565b6000602082019050818103600083015261348381613030565b9050919050565b600060208201905061349f6000830184613053565b92915050565b60006134af6134c0565b90506134bb8282613712565b919050565b6000604051905090565b600067ffffffffffffffff8211156134e5576134e461384a565b5b6134ee82613879565b9050602081019050919050565b600067ffffffffffffffff8211156135165761351561384a565b5b61351f82613879565b9050602081019050919050565b600081519050919050565b600081519050919050565b600082825260208201905092915050565b600082825260208201905092915050565b600081905092915050565b600061357a82613694565b915061358583613694565b9250827fffffffffffffffffffffffffffffffffffffffffffffffffffffffffffffffff038211156135ba576135b96137bd565b5b828201905092915050565b60006135d082613694565b91506135db83613694565b9250826135eb576135ea6137ec565b5b828204905092915050565b600061360182613694565b915061360c83613694565b92508282101561361f5761361e6137bd565b5b828203905092915050565b600061363582613674565b9050919050565b60008115159050919050565b60007fffffffff0000000000000000000000000000000000000000000000000000000082169050919050565b600073ffffffffffffffffffffffffffffffffffffffff82169050919050565b6000819050919050565b82818337600083830152505050565b60005b838110156136cb5780820151818401526020810190506136b0565b838111156136da576000848401525b50505050565b600060028204905060018216806136f857607f821691505b6020821081141561370c5761370b61381b565b5b50919050565b61371b82613879565b810181811067ffffffffffffffff8211171561373a5761373961384a565b5b80604052505050565b600061374e82613694565b91507fffffffffffffffffffffffffffffffffffffffffffffffffffffffffffffffff821415613781576137806137bd565b5b600182019050919050565b600061379782613694565b91506137a283613694565b9250826137b2576137b16137ec565b5b828206905092915050565b7f4e487b7100000000000000000000000000000000000000000000000000000000600052601160045260246000fd5b7f4e487b7100000000000000000000000000000000000000000000000000000000600052601260045260246000fd5b7f4e487b7100000000000000000000000000000000000000000000000000000000600052602260045260246000fd5b7f4e487b7100000000000000000000000000000000000000000000000000000000600052604160045260246000fd5b6000601f19601f8301169050919050565b7f596f75206d75737420617070726f766520666f7220636f6e747261637420746f60008201527f207472616e73666572206372656174696e6720636f7374000000000000000000602082015250565b7f455243373231456e756d657261626c653a206f776e657220696e646578206f7560008201527f74206f6620626f756e6473000000000000000000000000000000000000000000602082015250565b7f4552433732313a207472616e7366657220746f206e6f6e20455243373231526560008201527f63656976657220696d706c656d656e7465720000000000000000000000000000602082015250565b7f4f776e61626c653a206e6577206f776e657220697320746865207a65726f206160008201527f6464726573730000000000000000000000000000000000000000000000000000602082015250565b7f4552433732313a20746f6b656e20616c7265616479206d696e74656400000000600082015250565b7f4552433732313a207472616e7366657220746f20746865207a65726f2061646460008201527f7265737300000000000000000000000000000000000000000000000000000000602082015250565b7f4552433732313a20617070726f766520746f2063616c6c657200000000000000600082015250565b7f4552433732313a206f70657261746f7220717565727920666f72206e6f6e657860008201527f697374656e7420746f6b656e0000000000000000000000000000000000000000602082015250565b7f4552433732313a20617070726f76652063616c6c6572206973206e6f74206f7760008201527f6e6572206e6f7220617070726f76656420666f7220616c6c0000000000000000602082015250565b7f4552433732313a2062616c616e636520717565727920666f7220746865207a6560008201527f726f206164647265737300000000000000000000000000000000000000000000602082015250565b7f4552433732313a206f776e657220717565727920666f72206e6f6e657869737460008201527f656e7420746f6b656e0000000000000000000000000000000000000000000000602082015250565b7f45524337323155524953746f726167653a2055524920736574206f66206e6f6e60008201527f6578697374656e7420746f6b656e000000000000000000000000000000000000602082015250565b7f596f75722062616c616e6365206e6f7420656e6f756768206372656174696e6760008201527f20636f7374000000000000000000000000000000000000000000000000000000602082015250565b7f4552433732313a206d696e7420746f20746865207a65726f2061646472657373600082015250565b7f45524337323155524953746f726167653a2055524920717565727920666f722060008201527f6e6f6e6578697374656e7420746f6b656e000000000000000000000000000000602082015250565b7f4552433732313a20617070726f76656420717565727920666f72206e6f6e657860008201527f697374656e7420746f6b656e0000000000000000000000000000000000000000602082015250565b7f4f776e61626c653a2063616c6c6572206973206e6f7420746865206f776e6572600082015250565b7f4552433732313a207472616e73666572206f6620746f6b656e2074686174206960008201527f73206e6f74206f776e0000000000000000000000000000000000000000000000602082015250565b7f4552433732314d657461646174613a2055524920717565727920666f72206e6f60008201527f6e6578697374656e7420746f6b656e0000000000000000000000000000000000602082015250565b7f4552433732313a20617070726f76616c20746f2063757272656e74206f776e6560008201527f7200000000000000000000000000000000000000000000000000000000000000602082015250565b7f4552433732313a207472616e736665722063616c6c6572206973206e6f74206f60008201527f776e6572206e6f7220617070726f766564000000000000000000000000000000602082015250565b7f455243373231456e756d657261626c653a20676c6f62616c20696e646578206f60008201527f7574206f6620626f756e64730000000000000000000000000000000000000000602082015250565b7f5265656e7472616e637947756172643a207265656e7472616e742063616c6c00600082015250565b7f4552433732314275726e61626c653a2063616c6c6572206973206e6f74206f7760008201527f6e6572206e6f7220617070726f76656400000000000000000000000000000000602082015250565b613f3d8161362a565b8114613f4857600080fd5b50565b613f548161363c565b8114613f5f57600080fd5b50565b613f6b81613648565b8114613f7657600080fd5b50565b613f8281613694565b8114613f8d57600080fd5b5056fea26469706673582212204afbf4b0639afe575f56b62e400785144ee3caf9b27e23c32600f91bfdf1410364736f6c63430008040033",
  "linkReferences": {},
  "deployedLinkReferences": {}
}