{
  "_format": "hh-sol-artifact-1",
  "contractName": "TankMarketV2",
  "sourceName": "contracts/TankMarketV2.sol",
  "abi": [
    {
      "anonymous": false,
      "inputs": [
        {
          "indexed": true,
          "internalType": "uint256",
          "name": "itemId",
          "type": "uint256"
        },
        {
          "indexed": true,
          "internalType": "uint256",
          "name": "tokenId",
          "type": "uint256"
        },
        {
          "indexed": false,
          "internalType": "address",
          "name": "seller",
          "type": "address"
        },
        {
          "indexed": false,
          "internalType": "address",
          "name": "owner",
          "type": "address"
        },
        {
          "indexed": false,
          "internalType": "uint256",
          "name": "price",
          "type": "uint256"
        },
        {
          "indexed": false,
          "internalType": "bool",
          "name": "sold",
          "type": "bool"
        }
      ],
      "name": "MarketItemCreated",
      "type": "event"
    },
    {
      "anonymous": false,
      "inputs": [
        {
          "indexed": true,
          "internalType": "address",
          "name": "previousOwner",
          "type": "address"
        },
        {
          "indexed": true,
          "internalType": "address",
          "name": "newOwner",
          "type": "address"
        }
      ],
      "name": "OwnershipTransferred",
      "type": "event"
    },
    {
      "inputs": [
        {
          "internalType": "uint256",
          "name": "itemId",
          "type": "uint256"
        }
      ],
      "name": "cancelSellItem",
      "outputs": [],
      "stateMutability": "nonpayable",
      "type": "function"
    },
    {
      "inputs": [
        {
          "internalType": "uint256",
          "name": "tokenId",
          "type": "uint256"
        },
        {
          "internalType": "uint256",
          "name": "price",
          "type": "uint256"
        }
      ],
      "name": "createMarketItem",
      "outputs": [],
      "stateMutability": "nonpayable",
      "type": "function"
    },
    {
      "inputs": [
        {
          "internalType": "uint256",
          "name": "tokenId",
          "type": "uint256"
        }
      ],
      "name": "getHistories",
      "outputs": [
        {
          "components": [
            {
              "internalType": "uint256",
              "name": "itemId",
              "type": "uint256"
            },
            {
              "internalType": "uint256",
              "name": "tokenId",
              "type": "uint256"
            },
            {
              "internalType": "address",
              "name": "seller",
              "type": "address"
            },
            {
              "internalType": "address",
              "name": "owner",
              "type": "address"
            },
            {
              "internalType": "uint256",
              "name": "price",
              "type": "uint256"
            },
            {
              "internalType": "bool",
              "name": "sold",
              "type": "bool"
            }
          ],
          "internalType": "struct TankMarketV2.MarketItem[]",
          "name": "",
          "type": "tuple[]"
        }
      ],
      "stateMutability": "view",
      "type": "function"
    },
    {
      "inputs": [],
      "name": "getListingCost",
      "outputs": [
        {
          "internalType": "uint256",
          "name": "",
          "type": "uint256"
        }
      ],
      "stateMutability": "view",
      "type": "function"
    },
    {
      "inputs": [],
      "name": "getMarketItems",
      "outputs": [
        {
          "components": [
            {
              "internalType": "uint256",
              "name": "itemId",
              "type": "uint256"
            },
            {
              "internalType": "uint256",
              "name": "tokenId",
              "type": "uint256"
            },
            {
              "internalType": "address",
              "name": "seller",
              "type": "address"
            },
            {
              "internalType": "address",
              "name": "owner",
              "type": "address"
            },
            {
              "internalType": "uint256",
              "name": "price",
              "type": "uint256"
            },
            {
              "internalType": "bool",
              "name": "sold",
              "type": "bool"
            }
          ],
          "internalType": "struct TankMarketV2.MarketItem[]",
          "name": "",
          "type": "tuple[]"
        }
      ],
      "stateMutability": "view",
      "type": "function"
    },
    {
      "inputs": [],
      "name": "getMyItems",
      "outputs": [
        {
          "components": [
            {
              "internalType": "uint256",
              "name": "itemId",
              "type": "uint256"
            },
            {
              "internalType": "uint256",
              "name": "tokenId",
              "type": "uint256"
            },
            {
              "internalType": "address",
              "name": "seller",
              "type": "address"
            },
            {
              "internalType": "address",
              "name": "owner",
              "type": "address"
            },
            {
              "internalType": "uint256",
              "name": "price",
              "type": "uint256"
            },
            {
              "internalType": "bool",
              "name": "sold",
              "type": "bool"
            }
          ],
          "internalType": "struct TankMarketV2.MarketItem[]",
          "name": "",
          "type": "tuple[]"
        }
      ],
      "stateMutability": "view",
      "type": "function"
    },
    {
      "inputs": [],
      "name": "getMyItemsOnSell",
      "outputs": [
        {
          "components": [
            {
              "internalType": "uint256",
              "name": "itemId",
              "type": "uint256"
            },
            {
              "internalType": "uint256",
              "name": "tokenId",
              "type": "uint256"
            },
            {
              "internalType": "address",
              "name": "seller",
              "type": "address"
            },
            {
              "internalType": "address",
              "name": "owner",
              "type": "address"
            },
            {
              "internalType": "uint256",
              "name": "price",
              "type": "uint256"
            },
            {
              "internalType": "bool",
              "name": "sold",
              "type": "bool"
            }
          ],
          "internalType": "struct TankMarketV2.MarketItem[]",
          "name": "",
          "type": "tuple[]"
        }
      ],
      "stateMutability": "view",
      "type": "function"
    },
    {
      "inputs": [
        {
          "internalType": "uint256",
          "name": "listingCost",
          "type": "uint256"
        },
        {
          "internalType": "address",
          "name": "tokenContract",
          "type": "address"
        },
        {
          "internalType": "address",
          "name": "nftContract",
          "type": "address"
        }
      ],
      "name": "initialize",
      "outputs": [],
      "stateMutability": "nonpayable",
      "type": "function"
    },
    {
      "inputs": [
        {
          "internalType": "address",
          "name": "",
          "type": "address"
        },
        {
          "internalType": "address",
          "name": "",
          "type": "address"
        },
        {
          "internalType": "uint256",
          "name": "",
          "type": "uint256"
        },
        {
          "internalType": "bytes",
          "name": "",
          "type": "bytes"
        }
      ],
      "name": "onERC721Received",
      "outputs": [
        {
          "internalType": "bytes4",
          "name": "",
          "type": "bytes4"
        }
      ],
      "stateMutability": "nonpayable",
      "type": "function"
    },
    {
      "inputs": [],
      "name": "owner",
      "outputs": [
        {
          "internalType": "address",
          "name": "",
          "type": "address"
        }
      ],
      "stateMutability": "view",
      "type": "function"
    },
    {
      "inputs": [],
      "name": "renounceOwnership",
      "outputs": [],
      "stateMutability": "nonpayable",
      "type": "function"
    },
    {
      "inputs": [
        {
          "internalType": "uint256",
          "name": "itemId",
          "type": "uint256"
        }
      ],
      "name": "sellMarketItem",
      "outputs": [],
      "stateMutability": "nonpayable",
      "type": "function"
    },
    {
      "inputs": [
        {
          "internalType": "address",
          "name": "newOwner",
          "type": "address"
        }
      ],
      "name": "transferOwnership",
      "outputs": [],
      "stateMutability": "nonpayable",
      "type": "function"
    }
  ],
  "bytecode": "0x608060405234801561001057600080fd5b50613287806100206000396000f3fe608060405234801561001057600080fd5b50600436106100cf5760003560e01c8063715018a61161008c578063ab66893a11610066578063ab66893a146101ec578063b4988fd01461020a578063c5fb207d14610226578063f2fde38b14610244576100cf565b8063715018a6146101a85780638da5cb5b146101b257806391ddfe0a146101d0576100cf565b8063150b7a02146100d457806329aa3a4214610104578063305e959a14610122578063361c19951461013e57806354acffb11461015a5780635931b16914610178575b600080fd5b6100ee60048036038101906100e99190612543565b610260565b6040516100fb9190612aa4565b60405180910390f35b61010c610274565b6040516101199190612a82565b60405180910390f35b61013c600480360381019061013791906125e7565b6104eb565b005b61015860048036038101906101539190612688565b61070e565b005b610162610d88565b60405161016f9190612c3f565b60405180910390f35b610192600480360381019061018d91906125e7565b610d92565b60405161019f9190612a82565b60405180910390f35b6101b06111a0565b005b6101ba611228565b6040516101c791906129c2565b60405180910390f35b6101ea60048036038101906101e591906125e7565b611252565b005b6101f46116cc565b6040516102019190612a82565b60405180910390f35b610224600480360381019061021f9190612639565b611a7c565b005b61022e611be9565b60405161023b9190612a82565b60405180910390f35b61025e600480360381019061025991906124f1565b611f27565b005b600063150b7a0260e01b9050949350505050565b6060600061028260c961201f565b9050600061029060ca61201f565b61029a60c961201f565b6102a49190612d50565b90506000808267ffffffffffffffff8111156102e9577f4e487b7100000000000000000000000000000000000000000000000000000000600052604160045260246000fd5b60405190808252806020026020018201604052801561032257816020015b61030f6123bc565b8152602001906001900390816103075790505b50905060005b848110156104e05760ce60006001836103419190612cfa565b815260200190815260200160002060050160009054906101000a900460ff166104cd57600060ce60006001846103779190612cfa565b81526020019081526020016000209050806040518060c001604052908160008201548152602001600182015481526020016002820160009054906101000a900473ffffffffffffffffffffffffffffffffffffffff1673ffffffffffffffffffffffffffffffffffffffff1673ffffffffffffffffffffffffffffffffffffffff1681526020016003820160009054906101000a900473ffffffffffffffffffffffffffffffffffffffff1673ffffffffffffffffffffffffffffffffffffffff1673ffffffffffffffffffffffffffffffffffffffff168152602001600482015481526020016005820160009054906101000a900460ff1615151515815250508385815181106104b1577f4e487b7100000000000000000000000000000000000000000000000000000000600052603260045260246000fd5b60200260200101819052506001846104c99190612cfa565b9350505b80806104d890612e38565b915050610328565b508094505050505090565b60026097541415610531576040517f08c379a000000000000000000000000000000000000000000000000000000000815260040161052890612bdf565b60405180910390fd5b6002609781905550600060ce600083815260200190815260200160002090508060020160009054906101000a900473ffffffffffffffffffffffffffffffffffffffff1673ffffffffffffffffffffffffffffffffffffffff163373ffffffffffffffffffffffffffffffffffffffff16146105e2576040517f08c379a00000000000000000000000000000000000000000000000000000000081526004016105d990612abf565b60405180910390fd5b8060050160009054906101000a900460ff1615610634576040517f08c379a000000000000000000000000000000000000000000000000000000000815260040161062b90612bbf565b60405180910390fd5b60cd60009054906101000a900473ffffffffffffffffffffffffffffffffffffffff1673ffffffffffffffffffffffffffffffffffffffff166342842e0e303384600101546040518463ffffffff1660e01b815260040161069793929190612a06565b600060405180830381600087803b1580156106b157600080fd5b505af11580156106c5573d6000803e3d6000fd5b50505050600160ce600084815260200190815260200160002060050160006101000a81548160ff02191690831515021790555061070260ca61202d565b50600160978190555050565b60026097541415610754576040517f08c379a000000000000000000000000000000000000000000000000000000000815260040161074b90612bdf565b60405180910390fd5b60026097819055506000811161079f576040517f08c379a000000000000000000000000000000000000000000000000000000000815260040161079690612bff565b60405180910390fd5b60cb5460cc60009054906101000a900473ffffffffffffffffffffffffffffffffffffffff1673ffffffffffffffffffffffffffffffffffffffff166370a08231336040518263ffffffff1660e01b81526004016107fd91906129c2565b60206040518083038186803b15801561081557600080fd5b505afa158015610829573d6000803e3d6000fd5b505050506040513d601f19601f8201168201806040525081019061084d9190612610565b101561088e576040517f08c379a000000000000000000000000000000000000000000000000000000000815260040161088590612b7f565b60405180910390fd5b60cb5460cc60009054906101000a900473ffffffffffffffffffffffffffffffffffffffff1673ffffffffffffffffffffffffffffffffffffffff1663dd62ed3e33306040518363ffffffff1660e01b81526004016108ee9291906129dd565b60206040518083038186803b15801561090657600080fd5b505afa15801561091a573d6000803e3d6000fd5b505050506040513d601f19601f8201168201806040525081019061093e9190612610565b101561097f576040517f08c379a000000000000000000000000000000000000000000000000000000000815260040161097690612b9f565b60405180910390fd5b3073ffffffffffffffffffffffffffffffffffffffff1660cd60009054906101000a900473ffffffffffffffffffffffffffffffffffffffff1673ffffffffffffffffffffffffffffffffffffffff1663081812fc846040518263ffffffff1660e01b81526004016109f19190612c3f565b60206040518083038186803b158015610a0957600080fd5b505afa158015610a1d573d6000803e3d6000fd5b505050506040513d601f19601f82011682018060405250810190610a41919061251a565b73ffffffffffffffffffffffffffffffffffffffff1614610a97576040517f08c379a0000000000000000000000000000000000000000000000000000000008152600401610a8e90612adf565b60405180910390fd5b60cc60009054906101000a900473ffffffffffffffffffffffffffffffffffffffff1673ffffffffffffffffffffffffffffffffffffffff166323b872dd33610ade611228565b60cb546040518463ffffffff1660e01b8152600401610aff93929190612a06565b602060405180830381600087803b158015610b1957600080fd5b505af1158015610b2d573d6000803e3d6000fd5b505050506040513d601f19601f82011682018060405250810190610b5191906125be565b5060cd60009054906101000a900473ffffffffffffffffffffffffffffffffffffffff1673ffffffffffffffffffffffffffffffffffffffff166342842e0e3330856040518463ffffffff1660e01b8152600401610bb193929190612a06565b600060405180830381600087803b158015610bcb57600080fd5b505af1158015610bdf573d6000803e3d6000fd5b50505050610bed60c961202d565b6000610bf960c961201f565b90506040518060c001604052808281526020018481526020013373ffffffffffffffffffffffffffffffffffffffff168152602001600073ffffffffffffffffffffffffffffffffffffffff1681526020018381526020016000151581525060ce6000838152602001908152602001600020600082015181600001556020820151816001015560408201518160020160006101000a81548173ffffffffffffffffffffffffffffffffffffffff021916908373ffffffffffffffffffffffffffffffffffffffff16021790555060608201518160030160006101000a81548173ffffffffffffffffffffffffffffffffffffffff021916908373ffffffffffffffffffffffffffffffffffffffff1602179055506080820151816004015560a08201518160050160006101000a81548160ff02191690831515021790555090505082817f4a29ff6f650682addfdf8030b3eeb4610ec651b42d8603f2527633347f9489c9336000866000604051610d739493929190612a3d565b60405180910390a35060016097819055505050565b600060cb54905090565b60606000610da060c961201f565b905060008060005b83811015610eb0578560ce6000600184610dc29190612cfa565b815260200190815260200160002060010154148015610e0d575060ce6000600183610ded9190612cfa565b815260200190815260200160002060050160009054906101000a900460ff165b8015610e885750600073ffffffffffffffffffffffffffffffffffffffff1660ce6000600184610e3d9190612cfa565b815260200190815260200160002060030160009054906101000a900473ffffffffffffffffffffffffffffffffffffffff1673ffffffffffffffffffffffffffffffffffffffff1614155b15610e9d57600183610e9a9190612cfa565b92505b8080610ea890612e38565b915050610da8565b5060008267ffffffffffffffff811115610ef3577f4e487b7100000000000000000000000000000000000000000000000000000000600052604160045260246000fd5b604051908082528060200260200182016040528015610f2c57816020015b610f196123bc565b815260200190600190039081610f115790505b50905060005b84811015611193578660ce6000600184610f4c9190612cfa565b815260200190815260200160002060010154148015610f97575060ce6000600183610f779190612cfa565b815260200190815260200160002060050160009054906101000a900460ff165b80156110125750600073ffffffffffffffffffffffffffffffffffffffff1660ce6000600184610fc79190612cfa565b815260200190815260200160002060030160009054906101000a900473ffffffffffffffffffffffffffffffffffffffff1673ffffffffffffffffffffffffffffffffffffffff1614155b1561118057600060ce600060018461102a9190612cfa565b81526020019081526020016000209050806040518060c001604052908160008201548152602001600182015481526020016002820160009054906101000a900473ffffffffffffffffffffffffffffffffffffffff1673ffffffffffffffffffffffffffffffffffffffff1673ffffffffffffffffffffffffffffffffffffffff1681526020016003820160009054906101000a900473ffffffffffffffffffffffffffffffffffffffff1673ffffffffffffffffffffffffffffffffffffffff1673ffffffffffffffffffffffffffffffffffffffff168152602001600482015481526020016005820160009054906101000a900460ff161515151581525050838581518110611164577f4e487b7100000000000000000000000000000000000000000000000000000000600052603260045260246000fd5b602002602001018190525060018461117c9190612cfa565b9350505b808061118b90612e38565b915050610f32565b5080945050505050919050565b6111a8612043565b73ffffffffffffffffffffffffffffffffffffffff166111c6611228565b73ffffffffffffffffffffffffffffffffffffffff161461121c576040517f08c379a000000000000000000000000000000000000000000000000000000000815260040161121390612b5f565b60405180910390fd5b611226600061204b565b565b6000606560009054906101000a900473ffffffffffffffffffffffffffffffffffffffff16905090565b60026097541415611298576040517f08c379a000000000000000000000000000000000000000000000000000000000815260040161128f90612bdf565b60405180910390fd5b6002609781905550600060ce6000838152602001908152602001600020600401549050600060ce6000848152602001908152602001600020600101549050600060ce600085815260200190815260200160002060020160009054906101000a900473ffffffffffffffffffffffffffffffffffffffff1690508260cc60009054906101000a900473ffffffffffffffffffffffffffffffffffffffff1673ffffffffffffffffffffffffffffffffffffffff166370a08231336040518263ffffffff1660e01b815260040161136d91906129c2565b60206040518083038186803b15801561138557600080fd5b505afa158015611399573d6000803e3d6000fd5b505050506040513d601f19601f820116820180604052508101906113bd9190612610565b10156113fe576040517f08c379a00000000000000000000000000000000000000000000000000000000081526004016113f590612b1f565b60405180910390fd5b8260cc60009054906101000a900473ffffffffffffffffffffffffffffffffffffffff1673ffffffffffffffffffffffffffffffffffffffff1663dd62ed3e33306040518363ffffffff1660e01b815260040161145c9291906129dd565b60206040518083038186803b15801561147457600080fd5b505afa158015611488573d6000803e3d6000fd5b505050506040513d601f19601f820116820180604052508101906114ac9190612610565b10156114ed576040517f08c379a00000000000000000000000000000000000000000000000000000000081526004016114e490612c1f565b60405180910390fd5b60cc60009054906101000a900473ffffffffffffffffffffffffffffffffffffffff1673ffffffffffffffffffffffffffffffffffffffff166323b872dd3383866040518463ffffffff1660e01b815260040161154c93929190612a06565b602060405180830381600087803b15801561156657600080fd5b505af115801561157a573d6000803e3d6000fd5b505050506040513d601f19601f8201168201806040525081019061159e91906125be565b5060cd60009054906101000a900473ffffffffffffffffffffffffffffffffffffffff1673ffffffffffffffffffffffffffffffffffffffff166342842e0e3033856040518463ffffffff1660e01b81526004016115fe93929190612a06565b600060405180830381600087803b15801561161857600080fd5b505af115801561162c573d6000803e3d6000fd5b505050503360ce600086815260200190815260200160002060030160006101000a81548173ffffffffffffffffffffffffffffffffffffffff021916908373ffffffffffffffffffffffffffffffffffffffff160217905550600160ce600086815260200190815260200160002060050160006101000a81548160ff0219169083151502179055506116be60ca61202d565b505050600160978190555050565b606060006116da60c961201f565b905060008060005b838110156117bc573373ffffffffffffffffffffffffffffffffffffffff1660ce60006001846117129190612cfa565b815260200190815260200160002060020160009054906101000a900473ffffffffffffffffffffffffffffffffffffffff1673ffffffffffffffffffffffffffffffffffffffff16148015611794575060ce60006001836117739190612cfa565b815260200190815260200160002060050160009054906101000a900460ff16155b156117a9576001836117a69190612cfa565b92505b80806117b490612e38565b9150506116e2565b5060008267ffffffffffffffff8111156117ff577f4e487b7100000000000000000000000000000000000000000000000000000000600052604160045260246000fd5b60405190808252806020026020018201604052801561183857816020015b6118256123bc565b81526020019060019003908161181d5790505b50905060005b84811015611a71573373ffffffffffffffffffffffffffffffffffffffff1660ce600060018461186e9190612cfa565b815260200190815260200160002060020160009054906101000a900473ffffffffffffffffffffffffffffffffffffffff1673ffffffffffffffffffffffffffffffffffffffff161480156118f0575060ce60006001836118cf9190612cfa565b815260200190815260200160002060050160009054906101000a900460ff16155b15611a5e57600060ce60006001846119089190612cfa565b81526020019081526020016000209050806040518060c001604052908160008201548152602001600182015481526020016002820160009054906101000a900473ffffffffffffffffffffffffffffffffffffffff1673ffffffffffffffffffffffffffffffffffffffff1673ffffffffffffffffffffffffffffffffffffffff1681526020016003820160009054906101000a900473ffffffffffffffffffffffffffffffffffffffff1673ffffffffffffffffffffffffffffffffffffffff1673ffffffffffffffffffffffffffffffffffffffff168152602001600482015481526020016005820160009054906101000a900460ff161515151581525050838581518110611a42577f4e487b7100000000000000000000000000000000000000000000000000000000600052603260045260246000fd5b6020026020010181905250600184611a5a9190612cfa565b9350505b8080611a6990612e38565b91505061183e565b508094505050505090565b600060019054906101000a900460ff1680611aa2575060008054906101000a900460ff16155b611ae1576040517f08c379a0000000000000000000000000000000000000000000000000000000008152600401611ad890612b3f565b60405180910390fd5b60008060019054906101000a900460ff161590508015611b31576001600060016101000a81548160ff02191690831515021790555060016000806101000a81548160ff0219169083151502179055505b611b39612111565b8360cb819055508260cc60006101000a81548173ffffffffffffffffffffffffffffffffffffffff021916908373ffffffffffffffffffffffffffffffffffffffff1602179055508160cd60006101000a81548173ffffffffffffffffffffffffffffffffffffffff021916908373ffffffffffffffffffffffffffffffffffffffff1602179055508015611be35760008060016101000a81548160ff0219169083151502179055505b50505050565b60606000611bf760c961201f565b905060008060005b83811015611ca0573373ffffffffffffffffffffffffffffffffffffffff1660ce6000600184611c2f9190612cfa565b815260200190815260200160002060030160009054906101000a900473ffffffffffffffffffffffffffffffffffffffff1673ffffffffffffffffffffffffffffffffffffffff161415611c8d57600183611c8a9190612cfa565b92505b8080611c9890612e38565b915050611bff565b5060008267ffffffffffffffff811115611ce3577f4e487b7100000000000000000000000000000000000000000000000000000000600052604160045260246000fd5b604051908082528060200260200182016040528015611d1c57816020015b611d096123bc565b815260200190600190039081611d015790505b50905060005b84811015611f1c573373ffffffffffffffffffffffffffffffffffffffff1660ce6000600184611d529190612cfa565b815260200190815260200160002060030160009054906101000a900473ffffffffffffffffffffffffffffffffffffffff1673ffffffffffffffffffffffffffffffffffffffff161415611f0957600060ce6000600184611db39190612cfa565b81526020019081526020016000209050806040518060c001604052908160008201548152602001600182015481526020016002820160009054906101000a900473ffffffffffffffffffffffffffffffffffffffff1673ffffffffffffffffffffffffffffffffffffffff1673ffffffffffffffffffffffffffffffffffffffff1681526020016003820160009054906101000a900473ffffffffffffffffffffffffffffffffffffffff1673ffffffffffffffffffffffffffffffffffffffff1673ffffffffffffffffffffffffffffffffffffffff168152602001600482015481526020016005820160009054906101000a900460ff161515151581525050838581518110611eed577f4e487b7100000000000000000000000000000000000000000000000000000000600052603260045260246000fd5b6020026020010181905250600184611f059190612cfa565b9350505b8080611f1490612e38565b915050611d22565b508094505050505090565b611f2f612043565b73ffffffffffffffffffffffffffffffffffffffff16611f4d611228565b73ffffffffffffffffffffffffffffffffffffffff1614611fa3576040517f08c379a0000000000000000000000000000000000000000000000000000000008152600401611f9a90612b5f565b60405180910390fd5b600073ffffffffffffffffffffffffffffffffffffffff168173ffffffffffffffffffffffffffffffffffffffff161415612013576040517f08c379a000000000000000000000000000000000000000000000000000000000815260040161200a90612aff565b60405180910390fd5b61201c8161204b565b50565b600081600001549050919050565b6001816000016000828254019250508190555050565b600033905090565b6000606560009054906101000a900473ffffffffffffffffffffffffffffffffffffffff16905081606560006101000a81548173ffffffffffffffffffffffffffffffffffffffff021916908373ffffffffffffffffffffffffffffffffffffffff1602179055508173ffffffffffffffffffffffffffffffffffffffff168173ffffffffffffffffffffffffffffffffffffffff167f8be0079c531659141344cd1fd0a4f28419497f9722a3daafe3b4186f6b6457e060405160405180910390a35050565b600060019054906101000a900460ff1680612137575060008054906101000a900460ff16155b612176576040517f08c379a000000000000000000000000000000000000000000000000000000000815260040161216d90612b3f565b60405180910390fd5b60008060019054906101000a900460ff1615905080156121c6576001600060016101000a81548160ff02191690831515021790555060016000806101000a81548160ff0219169083151502179055505b6121ce6121fa565b6121d66122d3565b80156121f75760008060016101000a81548160ff0219169083151502179055505b50565b600060019054906101000a900460ff1680612220575060008054906101000a900460ff16155b61225f576040517f08c379a000000000000000000000000000000000000000000000000000000000815260040161225690612b3f565b60405180910390fd5b60008060019054906101000a900460ff1615905080156122af576001600060016101000a81548160ff02191690831515021790555060016000806101000a81548160ff0219169083151502179055505b80156122d05760008060016101000a81548160ff0219169083151502179055505b50565b600060019054906101000a900460ff16806122f9575060008054906101000a900460ff16155b612338576040517f08c379a000000000000000000000000000000000000000000000000000000000815260040161232f90612b3f565b60405180910390fd5b60008060019054906101000a900460ff161590508015612388576001600060016101000a81548160ff02191690831515021790555060016000806101000a81548160ff0219169083151502179055505b612398612393612043565b61204b565b80156123b95760008060016101000a81548160ff0219169083151502179055505b50565b6040518060c001604052806000815260200160008152602001600073ffffffffffffffffffffffffffffffffffffffff168152602001600073ffffffffffffffffffffffffffffffffffffffff168152602001600081526020016000151581525090565b600061243361242e84612c7f565b612c5a565b90508281526020810184848401111561244b57600080fd5b612456848285612df8565b509392505050565b60008135905061246d8161320c565b92915050565b6000815190506124828161320c565b92915050565b60008151905061249781613223565b92915050565b600082601f8301126124ae57600080fd5b81356124be848260208601612420565b91505092915050565b6000813590506124d68161323a565b92915050565b6000815190506124eb8161323a565b92915050565b60006020828403121561250357600080fd5b60006125118482850161245e565b91505092915050565b60006020828403121561252c57600080fd5b600061253a84828501612473565b91505092915050565b6000806000806080858703121561255957600080fd5b60006125678782880161245e565b94505060206125788782880161245e565b9350506040612589878288016124c7565b925050606085013567ffffffffffffffff8111156125a657600080fd5b6125b28782880161249d565b91505092959194509250565b6000602082840312156125d057600080fd5b60006125de84828501612488565b91505092915050565b6000602082840312156125f957600080fd5b6000612607848285016124c7565b91505092915050565b60006020828403121561262257600080fd5b6000612630848285016124dc565b91505092915050565b60008060006060848603121561264e57600080fd5b600061265c868287016124c7565b935050602061266d8682870161245e565b925050604061267e8682870161245e565b9150509250925092565b6000806040838503121561269b57600080fd5b60006126a9858286016124c7565b92505060206126ba858286016124c7565b9150509250929050565b60006126d08383612929565b60c08301905092915050565b6126e581612d84565b82525050565b6126f481612d84565b82525050565b600061270582612cc0565b61270f8185612cd8565b935061271a83612cb0565b8060005b8381101561274b57815161273288826126c4565b975061273d83612ccb565b92505060018101905061271e565b5085935050505092915050565b61276181612d96565b82525050565b61277081612d96565b82525050565b61277f81612da2565b82525050565b6000612792603283612ce9565b915061279d82612ef0565b604082019050919050565b60006127b5603283612ce9565b91506127c082612f3f565b604082019050919050565b60006127d8602683612ce9565b91506127e382612f8e565b604082019050919050565b60006127fb602983612ce9565b915061280682612fdd565b604082019050919050565b600061281e602e83612ce9565b91506128298261302c565b604082019050919050565b6000612841602083612ce9565b915061284c8261307b565b602082019050919050565b6000612864602483612ce9565b915061286f826130a4565b604082019050919050565b6000612887603683612ce9565b9150612892826130f3565b604082019050919050565b60006128aa601583612ce9565b91506128b582613142565b602082019050919050565b60006128cd601f83612ce9565b91506128d88261316b565b602082019050919050565b60006128f0601c83612ce9565b91506128fb82613194565b602082019050919050565b6000612913603a83612ce9565b915061291e826131bd565b604082019050919050565b60c08201600082015161293f60008501826129a4565b50602082015161295260208501826129a4565b50604082015161296560408501826126dc565b50606082015161297860608501826126dc565b50608082015161298b60808501826129a4565b5060a082015161299e60a0850182612758565b50505050565b6129ad81612dee565b82525050565b6129bc81612dee565b82525050565b60006020820190506129d760008301846126eb565b92915050565b60006040820190506129f260008301856126eb565b6129ff60208301846126eb565b9392505050565b6000606082019050612a1b60008301866126eb565b612a2860208301856126eb565b612a3560408301846129b3565b949350505050565b6000608082019050612a5260008301876126eb565b612a5f60208301866126eb565b612a6c60408301856129b3565b612a796060830184612767565b95945050505050565b60006020820190508181036000830152612a9c81846126fa565b905092915050565b6000602082019050612ab96000830184612776565b92915050565b60006020820190508181036000830152612ad881612785565b9050919050565b60006020820190508181036000830152612af8816127a8565b9050919050565b60006020820190508181036000830152612b18816127cb565b9050919050565b60006020820190508181036000830152612b38816127ee565b9050919050565b60006020820190508181036000830152612b5881612811565b9050919050565b60006020820190508181036000830152612b7881612834565b9050919050565b60006020820190508181036000830152612b9881612857565b9050919050565b60006020820190508181036000830152612bb88161287a565b9050919050565b60006020820190508181036000830152612bd88161289d565b9050919050565b60006020820190508181036000830152612bf8816128c0565b9050919050565b60006020820190508181036000830152612c18816128e3565b9050919050565b60006020820190508181036000830152612c3881612906565b9050919050565b6000602082019050612c5460008301846129b3565b92915050565b6000612c64612c75565b9050612c708282612e07565b919050565b6000604051905090565b600067ffffffffffffffff821115612c9a57612c99612eb0565b5b612ca382612edf565b9050602081019050919050565b6000819050602082019050919050565b600081519050919050565b6000602082019050919050565b600082825260208201905092915050565b600082825260208201905092915050565b6000612d0582612dee565b9150612d1083612dee565b9250827fffffffffffffffffffffffffffffffffffffffffffffffffffffffffffffffff03821115612d4557612d44612e81565b5b828201905092915050565b6000612d5b82612dee565b9150612d6683612dee565b925082821015612d7957612d78612e81565b5b828203905092915050565b6000612d8f82612dce565b9050919050565b60008115159050919050565b60007fffffffff0000000000000000000000000000000000000000000000000000000082169050919050565b600073ffffffffffffffffffffffffffffffffffffffff82169050919050565b6000819050919050565b82818337600083830152505050565b612e1082612edf565b810181811067ffffffffffffffff82111715612e2f57612e2e612eb0565b5b80604052505050565b6000612e4382612dee565b91507fffffffffffffffffffffffffffffffffffffffffffffffffffffffffffffffff821415612e7657612e75612e81565b5b600182019050919050565b7f4e487b7100000000000000000000000000000000000000000000000000000000600052601160045260246000fd5b7f4e487b7100000000000000000000000000000000000000000000000000000000600052604160045260246000fd5b6000601f19601f8301169050919050565b7f4d7573742062652073656c6c657220746f2068617665207065726d697373696f60008201527f6e2063616e63656c2073656c6c206974656d0000000000000000000000000000602082015250565b7f596f75206d75737420617070726f766520666f72206d61726b657420746f207460008201527f72616e7366657220796f757220746f6b656e0000000000000000000000000000602082015250565b7f4f776e61626c653a206e6577206f776e657220697320746865207a65726f206160008201527f6464726573730000000000000000000000000000000000000000000000000000602082015250565b7f596f75722062616c616e6365206e6f7420656e6f75676820666f72206275792060008201527f74686973206974656d0000000000000000000000000000000000000000000000602082015250565b7f496e697469616c697a61626c653a20636f6e747261637420697320616c72656160008201527f647920696e697469616c697a6564000000000000000000000000000000000000602082015250565b7f4f776e61626c653a2063616c6c6572206973206e6f7420746865206f776e6572600082015250565b7f596f75722062616c616e6365206e6f7420656e6f756768206c697374696e672060008201527f636f737400000000000000000000000000000000000000000000000000000000602082015250565b7f596f75206d75737420617070726f766520666f7220636f6e747261637420746f60008201527f207472616e73666572206c697374696e6720636f737400000000000000000000602082015250565b7f4974656d206d757374206265206e6f7420736f6c640000000000000000000000600082015250565b7f5265656e7472616e637947756172643a207265656e7472616e742063616c6c00600082015250565b7f5072696365206d757374206265206174206c6561737420312077656900000000600082015250565b7f596f75206d75737420616c6c6f77616e6365206d61726b657420746f2074726160008201527f6e7366657220796f757220746f6b656e20746f2073656c6c6572000000000000602082015250565b61321581612d84565b811461322057600080fd5b50565b61322c81612d96565b811461323757600080fd5b50565b61324381612dee565b811461324e57600080fd5b5056fea26469706673582212208be65e3d997c4d5695bc570fc93f01067481b7e5d5618341add3da1c29af6c0964736f6c63430008040033",
  "linkReferences": {},
  "deployedLinkReferences": {}
}