{
  "_format": "hh-sol-artifact-1",
  "contractName": "TankNFT",
  "sourceName": "contracts/TankNFT.sol",
  "abi": [
    {
      "inputs": [
        {
          "internalType": "string",
          "name": "name",
          "type": "string"
        },
        {
          "internalType": "string",
          "name": "symbol",
          "type": "string"
        },
        {
          "internalType": "uint256",
          "name": "creatingCost",
          "type": "uint256"
        },
        {
          "internalType": "address",
          "name": "tokenAddress",
          "type": "address"
        }
      ],
      "stateMutability": "nonpayable",
      "type": "constructor"
    },
    {
      "anonymous": false,
      "inputs": [
        {
          "indexed": true,
          "internalType": "address",
          "name": "owner",
          "type": "address"
        },
        {
          "indexed": true,
          "internalType": "address",
          "name": "approved",
          "type": "address"
        },
        {
          "indexed": true,
          "internalType": "uint256",
          "name": "tokenId",
          "type": "uint256"
        }
      ],
      "name": "Approval",
      "type": "event"
    },
    {
      "anonymous": false,
      "inputs": [
        {
          "indexed": true,
          "internalType": "address",
          "name": "owner",
          "type": "address"
        },
        {
          "indexed": true,
          "internalType": "address",
          "name": "operator",
          "type": "address"
        },
        {
          "indexed": false,
          "internalType": "bool",
          "name": "approved",
          "type": "bool"
        }
      ],
      "name": "ApprovalForAll",
      "type": "event"
    },
    {
      "anonymous": false,
      "inputs": [
        {
          "indexed": true,
          "internalType": "address",
          "name": "previousOwner",
          "type": "address"
        },
        {
          "indexed": true,
          "internalType": "address",
          "name": "newOwner",
          "type": "address"
        }
      ],
      "name": "OwnershipTransferred",
      "type": "event"
    },
    {
      "anonymous": false,
      "inputs": [
        {
          "indexed": true,
          "internalType": "address",
          "name": "from",
          "type": "address"
        },
        {
          "indexed": true,
          "internalType": "address",
          "name": "to",
          "type": "address"
        },
        {
          "indexed": true,
          "internalType": "uint256",
          "name": "tokenId",
          "type": "uint256"
        }
      ],
      "name": "Transfer",
      "type": "event"
    },
    {
      "inputs": [
        {
          "internalType": "address",
          "name": "to",
          "type": "address"
        },
        {
          "internalType": "uint256",
          "name": "tokenId",
          "type": "uint256"
        }
      ],
      "name": "approve",
      "outputs": [],
      "stateMutability": "nonpayable",
      "type": "function"
    },
    {
      "inputs": [
        {
          "internalType": "address",
          "name": "owner",
          "type": "address"
        }
      ],
      "name": "balanceOf",
      "outputs": [
        {
          "internalType": "uint256",
          "name": "",
          "type": "uint256"
        }
      ],
      "stateMutability": "view",
      "type": "function"
    },
    {
      "inputs": [
        {
          "internalType": "string",
          "name": "tokenURI",
          "type": "string"
        }
      ],
      "name": "create",
      "outputs": [
        {
          "internalType": "uint256",
          "name": "",
          "type": "uint256"
        }
      ],
      "stateMutability": "nonpayable",
      "type": "function"
    },
    {
      "inputs": [
        {
          "internalType": "uint256",
          "name": "tokenId",
          "type": "uint256"
        }
      ],
      "name": "getApproved",
      "outputs": [
        {
          "internalType": "address",
          "name": "",
          "type": "address"
        }
      ],
      "stateMutability": "view",
      "type": "function"
    },
    {
      "inputs": [],
      "name": "getCreatingCost",
      "outputs": [
        {
          "internalType": "uint256",
          "name": "",
          "type": "uint256"
        }
      ],
      "stateMutability": "view",
      "type": "function"
    },
    {
      "inputs": [
        {
          "internalType": "address",
          "name": "owner",
          "type": "address"
        },
        {
          "internalType": "address",
          "name": "operator",
          "type": "address"
        }
      ],
      "name": "isApprovedForAll",
      "outputs": [
        {
          "internalType": "bool",
          "name": "",
          "type": "bool"
        }
      ],
      "stateMutability": "view",
      "type": "function"
    },
    {
      "inputs": [],
      "name": "name",
      "outputs": [
        {
          "internalType": "string",
          "name": "",
          "type": "string"
        }
      ],
      "stateMutability": "view",
      "type": "function"
    },
    {
      "inputs": [],
      "name": "owner",
      "outputs": [
        {
          "internalType": "address",
          "name": "",
          "type": "address"
        }
      ],
      "stateMutability": "view",
      "type": "function"
    },
    {
      "inputs": [
        {
          "internalType": "uint256",
          "name": "tokenId",
          "type": "uint256"
        }
      ],
      "name": "ownerOf",
      "outputs": [
        {
          "internalType": "address",
          "name": "",
          "type": "address"
        }
      ],
      "stateMutability": "view",
      "type": "function"
    },
    {
      "inputs": [],
      "name": "renounceOwnership",
      "outputs": [],
      "stateMutability": "nonpayable",
      "type": "function"
    },
    {
      "inputs": [
        {
          "internalType": "address",
          "name": "from",
          "type": "address"
        },
        {
          "internalType": "address",
          "name": "to",
          "type": "address"
        },
        {
          "internalType": "uint256",
          "name": "tokenId",
          "type": "uint256"
        }
      ],
      "name": "safeTransferFrom",
      "outputs": [],
      "stateMutability": "nonpayable",
      "type": "function"
    },
    {
      "inputs": [
        {
          "internalType": "address",
          "name": "from",
          "type": "address"
        },
        {
          "internalType": "address",
          "name": "to",
          "type": "address"
        },
        {
          "internalType": "uint256",
          "name": "tokenId",
          "type": "uint256"
        },
        {
          "internalType": "bytes",
          "name": "_data",
          "type": "bytes"
        }
      ],
      "name": "safeTransferFrom",
      "outputs": [],
      "stateMutability": "nonpayable",
      "type": "function"
    },
    {
      "inputs": [
        {
          "internalType": "address",
          "name": "operator",
          "type": "address"
        },
        {
          "internalType": "bool",
          "name": "approved",
          "type": "bool"
        }
      ],
      "name": "setApprovalForAll",
      "outputs": [],
      "stateMutability": "nonpayable",
      "type": "function"
    },
    {
      "inputs": [
        {
          "internalType": "bytes4",
          "name": "interfaceId",
          "type": "bytes4"
        }
      ],
      "name": "supportsInterface",
      "outputs": [
        {
          "internalType": "bool",
          "name": "",
          "type": "bool"
        }
      ],
      "stateMutability": "view",
      "type": "function"
    },
    {
      "inputs": [],
      "name": "symbol",
      "outputs": [
        {
          "internalType": "string",
          "name": "",
          "type": "string"
        }
      ],
      "stateMutability": "view",
      "type": "function"
    },
    {
      "inputs": [
        {
          "internalType": "uint256",
          "name": "tokenId",
          "type": "uint256"
        }
      ],
      "name": "tokenURI",
      "outputs": [
        {
          "internalType": "string",
          "name": "",
          "type": "string"
        }
      ],
      "stateMutability": "view",
      "type": "function"
    },
    {
      "inputs": [
        {
          "internalType": "address",
          "name": "from",
          "type": "address"
        },
        {
          "internalType": "address",
          "name": "to",
          "type": "address"
        },
        {
          "internalType": "uint256",
          "name": "tokenId",
          "type": "uint256"
        }
      ],
      "name": "transferFrom",
      "outputs": [],
      "stateMutability": "nonpayable",
      "type": "function"
    },
    {
      "inputs": [
        {
          "internalType": "address",
          "name": "newOwner",
          "type": "address"
        }
      ],
      "name": "transferOwnership",
      "outputs": [],
      "stateMutability": "nonpayable",
      "type": "function"
    }
  ],
  "bytecode": "0x60806040523480156200001157600080fd5b5060405162003a5038038062003a50833981810160405281019062000037919062000305565b8383816000908051906020019062000051929190620001b5565b5080600190805190602001906200006a929190620001b5565b5050506200008d62000081620000e760201b60201c565b620000ef60201b60201c565b600160088190555081600a8190555080600b60006101000a81548173ffffffffffffffffffffffffffffffffffffffff021916908373ffffffffffffffffffffffffffffffffffffffff1602179055505050505062000585565b600033905090565b6000600760009054906101000a900473ffffffffffffffffffffffffffffffffffffffff16905081600760006101000a81548173ffffffffffffffffffffffffffffffffffffffff021916908373ffffffffffffffffffffffffffffffffffffffff1602179055508173ffffffffffffffffffffffffffffffffffffffff168173ffffffffffffffffffffffffffffffffffffffff167f8be0079c531659141344cd1fd0a4f28419497f9722a3daafe3b4186f6b6457e060405160405180910390a35050565b828054620001c39062000476565b90600052602060002090601f016020900481019282620001e7576000855562000233565b82601f106200020257805160ff191683800117855562000233565b8280016001018555821562000233579182015b828111156200023257825182559160200191906001019062000215565b5b50905062000242919062000246565b5090565b5b808211156200026157600081600090555060010162000247565b5090565b60006200027c6200027684620003cc565b620003a3565b9050828152602081018484840111156200029557600080fd5b620002a284828562000440565b509392505050565b600081519050620002bb8162000551565b92915050565b600082601f830112620002d357600080fd5b8151620002e584826020860162000265565b91505092915050565b600081519050620002ff816200056b565b92915050565b600080600080608085870312156200031c57600080fd5b600085015167ffffffffffffffff8111156200033757600080fd5b6200034587828801620002c1565b945050602085015167ffffffffffffffff8111156200036357600080fd5b6200037187828801620002c1565b93505060406200038487828801620002ee565b92505060606200039787828801620002aa565b91505092959194509250565b6000620003af620003c2565b9050620003bd8282620004ac565b919050565b6000604051905090565b600067ffffffffffffffff821115620003ea57620003e962000511565b5b620003f58262000540565b9050602081019050919050565b60006200040f8262000416565b9050919050565b600073ffffffffffffffffffffffffffffffffffffffff82169050919050565b6000819050919050565b60005b838110156200046057808201518184015260208101905062000443565b8381111562000470576000848401525b50505050565b600060028204905060018216806200048f57607f821691505b60208210811415620004a657620004a5620004e2565b5b50919050565b620004b78262000540565b810181811067ffffffffffffffff82111715620004d957620004d862000511565b5b80604052505050565b7f4e487b7100000000000000000000000000000000000000000000000000000000600052602260045260246000fd5b7f4e487b7100000000000000000000000000000000000000000000000000000000600052604160045260246000fd5b6000601f19601f8301169050919050565b6200055c8162000402565b81146200056857600080fd5b50565b620005768162000436565b81146200058257600080fd5b50565b6134bb80620005956000396000f3fe608060405234801561001057600080fd5b50600436106101165760003560e01c8063715018a6116100a2578063b6a46b3b11610071578063b6a46b3b146102cd578063b88d4fde146102fd578063c87b56dd14610319578063e985e9c514610349578063f2fde38b1461037957610116565b8063715018a61461026b5780638da5cb5b1461027557806395d89b4114610293578063a22cb465146102b157610116565b806323b872dd116100e957806323b872dd146101b557806342842e0e146101d15780636352211e146101ed57806367453fa71461021d57806370a082311461023b57610116565b806301ffc9a71461011b57806306fdde031461014b578063081812fc14610169578063095ea7b314610199575b600080fd5b61013560048036038101906101309190612210565b610395565b604051610142919061278f565b60405180910390f35b610153610477565b60405161016091906127aa565b60405180910390f35b610183600480360381019061017e91906122a3565b610509565b60405161019091906126c8565b60405180910390f35b6101b360048036038101906101ae91906121ab565b61058e565b005b6101cf60048036038101906101ca91906120a5565b6106a6565b005b6101eb60048036038101906101e691906120a5565b610706565b005b610207600480360381019061020291906122a3565b610726565b60405161021491906126c8565b60405180910390f35b6102256107d8565b6040516102329190612a6c565b60405180910390f35b61025560048036038101906102509190612040565b6107e2565b6040516102629190612a6c565b60405180910390f35b61027361089a565b005b61027d610922565b60405161028a91906126c8565b60405180910390f35b61029b61094c565b6040516102a891906127aa565b60405180910390f35b6102cb60048036038101906102c6919061216f565b6109de565b005b6102e760048036038101906102e29190612262565b610b5f565b6040516102f49190612a6c565b60405180910390f35b610317600480360381019061031291906120f4565b610e87565b005b610333600480360381019061032e91906122a3565b610ee9565b60405161034091906127aa565b60405180910390f35b610363600480360381019061035e9190612069565b61103b565b604051610370919061278f565b60405180910390f35b610393600480360381019061038e9190612040565b6110cf565b005b60007f80ac58cd000000000000000000000000000000000000000000000000000000007bffffffffffffffffffffffffffffffffffffffffffffffffffffffff1916827bffffffffffffffffffffffffffffffffffffffffffffffffffffffff1916148061046057507f5b5e139f000000000000000000000000000000000000000000000000000000007bffffffffffffffffffffffffffffffffffffffffffffffffffffffff1916827bffffffffffffffffffffffffffffffffffffffffffffffffffffffff1916145b80610470575061046f826111c7565b5b9050919050565b60606000805461048690612cc2565b80601f01602080910402602001604051908101604052809291908181526020018280546104b290612cc2565b80156104ff5780601f106104d4576101008083540402835291602001916104ff565b820191906000526020600020905b8154815290600101906020018083116104e257829003601f168201915b5050505050905090565b600061051482611231565b610553576040517f08c379a000000000000000000000000000000000000000000000000000000000815260040161054a9061298c565b60405180910390fd5b6004600083815260200190815260200160002060009054906101000a900473ffffffffffffffffffffffffffffffffffffffff169050919050565b600061059982610726565b90508073ffffffffffffffffffffffffffffffffffffffff168373ffffffffffffffffffffffffffffffffffffffff16141561060a576040517f08c379a000000000000000000000000000000000000000000000000000000000815260040161060190612a0c565b60405180910390fd5b8073ffffffffffffffffffffffffffffffffffffffff1661062961129d565b73ffffffffffffffffffffffffffffffffffffffff16148061065857506106578161065261129d565b61103b565b5b610697576040517f08c379a000000000000000000000000000000000000000000000000000000000815260040161068e906128ac565b60405180910390fd5b6106a183836112a5565b505050565b6106b76106b161129d565b8261135e565b6106f6576040517f08c379a00000000000000000000000000000000000000000000000000000000081526004016106ed90612a2c565b60405180910390fd5b61070183838361143c565b505050565b61072183838360405180602001604052806000815250610e87565b505050565b6000806002600084815260200190815260200160002060009054906101000a900473ffffffffffffffffffffffffffffffffffffffff169050600073ffffffffffffffffffffffffffffffffffffffff168173ffffffffffffffffffffffffffffffffffffffff1614156107cf576040517f08c379a00000000000000000000000000000000000000000000000000000000081526004016107c6906128ec565b60405180910390fd5b80915050919050565b6000600a54905090565b60008073ffffffffffffffffffffffffffffffffffffffff168273ffffffffffffffffffffffffffffffffffffffff161415610853576040517f08c379a000000000000000000000000000000000000000000000000000000000815260040161084a906128cc565b60405180910390fd5b600360008373ffffffffffffffffffffffffffffffffffffffff1673ffffffffffffffffffffffffffffffffffffffff168152602001908152602001600020549050919050565b6108a261129d565b73ffffffffffffffffffffffffffffffffffffffff166108c0610922565b73ffffffffffffffffffffffffffffffffffffffff1614610916576040517f08c379a000000000000000000000000000000000000000000000000000000000815260040161090d906129ac565b60405180910390fd5b6109206000611698565b565b6000600760009054906101000a900473ffffffffffffffffffffffffffffffffffffffff16905090565b60606001805461095b90612cc2565b80601f016020809104026020016040519081016040528092919081815260200182805461098790612cc2565b80156109d45780601f106109a9576101008083540402835291602001916109d4565b820191906000526020600020905b8154815290600101906020018083116109b757829003601f168201915b5050505050905090565b6109e661129d565b73ffffffffffffffffffffffffffffffffffffffff168273ffffffffffffffffffffffffffffffffffffffff161415610a54576040517f08c379a0000000000000000000000000000000000000000000000000000000008152600401610a4b9061286c565b60405180910390fd5b8060056000610a6161129d565b73ffffffffffffffffffffffffffffffffffffffff1673ffffffffffffffffffffffffffffffffffffffff16815260200190815260200160002060008473ffffffffffffffffffffffffffffffffffffffff1673ffffffffffffffffffffffffffffffffffffffff16815260200190815260200160002060006101000a81548160ff0219169083151502179055508173ffffffffffffffffffffffffffffffffffffffff16610b0e61129d565b73ffffffffffffffffffffffffffffffffffffffff167f17307eab39ab6107e8899845ad3d59bd9653f200f220920489ca2b5937696c3183604051610b53919061278f565b60405180910390a35050565b600060026008541415610ba7576040517f08c379a0000000000000000000000000000000000000000000000000000000008152600401610b9e90612a4c565b60405180910390fd5b6002600881905550600a54600b60009054906101000a900473ffffffffffffffffffffffffffffffffffffffff1673ffffffffffffffffffffffffffffffffffffffff166370a08231336040518263ffffffff1660e01b8152600401610c0d91906126c8565b60206040518083038186803b158015610c2557600080fd5b505afa158015610c39573d6000803e3d6000fd5b505050506040513d601f19601f82011682018060405250810190610c5d91906122cc565b1015610c9e576040517f08c379a0000000000000000000000000000000000000000000000000000000008152600401610c959061292c565b60405180910390fd5b600a54600b60009054906101000a900473ffffffffffffffffffffffffffffffffffffffff1673ffffffffffffffffffffffffffffffffffffffff1663dd62ed3e33306040518363ffffffff1660e01b8152600401610cfe9291906126e3565b60206040518083038186803b158015610d1657600080fd5b505afa158015610d2a573d6000803e3d6000fd5b505050506040513d601f19601f82011682018060405250810190610d4e91906122cc565b1015610d8f576040517f08c379a0000000000000000000000000000000000000000000000000000000008152600401610d86906127cc565b60405180910390fd5b600b60009054906101000a900473ffffffffffffffffffffffffffffffffffffffff1673ffffffffffffffffffffffffffffffffffffffff166323b872dd33610dd6610922565b600a546040518463ffffffff1660e01b8152600401610df79392919061270c565b602060405180830381600087803b158015610e1157600080fd5b505af1158015610e25573d6000803e3d6000fd5b505050506040513d601f19601f82011682018060405250810190610e4991906121e7565b50610e54600961175e565b6000610e606009611774565b9050610e6c3382611782565b610e768184611950565b809150506001600881905550919050565b610e98610e9261129d565b8361135e565b610ed7576040517f08c379a0000000000000000000000000000000000000000000000000000000008152600401610ece90612a2c565b60405180910390fd5b610ee3848484846119c4565b50505050565b6060610ef482611231565b610f33576040517f08c379a0000000000000000000000000000000000000000000000000000000008152600401610f2a9061296c565b60405180910390fd5b6000600660008481526020019081526020016000208054610f5390612cc2565b80601f0160208091040260200160405190810160405280929190818152602001828054610f7f90612cc2565b8015610fcc5780601f10610fa157610100808354040283529160200191610fcc565b820191906000526020600020905b815481529060010190602001808311610faf57829003601f168201915b505050505090506000610fdd611a20565b9050600081511415610ff3578192505050611036565b6000825111156110285780826040516020016110109291906126a4565b60405160208183030381529060405292505050611036565b61103184611a37565b925050505b919050565b6000600560008473ffffffffffffffffffffffffffffffffffffffff1673ffffffffffffffffffffffffffffffffffffffff16815260200190815260200160002060008373ffffffffffffffffffffffffffffffffffffffff1673ffffffffffffffffffffffffffffffffffffffff16815260200190815260200160002060009054906101000a900460ff16905092915050565b6110d761129d565b73ffffffffffffffffffffffffffffffffffffffff166110f5610922565b73ffffffffffffffffffffffffffffffffffffffff161461114b576040517f08c379a0000000000000000000000000000000000000000000000000000000008152600401611142906129ac565b60405180910390fd5b600073ffffffffffffffffffffffffffffffffffffffff168173ffffffffffffffffffffffffffffffffffffffff1614156111bb576040517f08c379a00000000000000000000000000000000000000000000000000000000081526004016111b29061280c565b60405180910390fd5b6111c481611698565b50565b60007f01ffc9a7000000000000000000000000000000000000000000000000000000007bffffffffffffffffffffffffffffffffffffffffffffffffffffffff1916827bffffffffffffffffffffffffffffffffffffffffffffffffffffffff1916149050919050565b60008073ffffffffffffffffffffffffffffffffffffffff166002600084815260200190815260200160002060009054906101000a900473ffffffffffffffffffffffffffffffffffffffff1673ffffffffffffffffffffffffffffffffffffffff1614159050919050565b600033905090565b816004600083815260200190815260200160002060006101000a81548173ffffffffffffffffffffffffffffffffffffffff021916908373ffffffffffffffffffffffffffffffffffffffff160217905550808273ffffffffffffffffffffffffffffffffffffffff1661131883610726565b73ffffffffffffffffffffffffffffffffffffffff167f8c5be1e5ebec7d5bd14f71427d1e84f3dd0314c0f7b2291e5b200ac8c7c3b92560405160405180910390a45050565b600061136982611231565b6113a8576040517f08c379a000000000000000000000000000000000000000000000000000000000815260040161139f9061288c565b60405180910390fd5b60006113b383610726565b90508073ffffffffffffffffffffffffffffffffffffffff168473ffffffffffffffffffffffffffffffffffffffff16148061142257508373ffffffffffffffffffffffffffffffffffffffff1661140a84610509565b73ffffffffffffffffffffffffffffffffffffffff16145b806114335750611432818561103b565b5b91505092915050565b8273ffffffffffffffffffffffffffffffffffffffff1661145c82610726565b73ffffffffffffffffffffffffffffffffffffffff16146114b2576040517f08c379a00000000000000000000000000000000000000000000000000000000081526004016114a9906129cc565b60405180910390fd5b600073ffffffffffffffffffffffffffffffffffffffff168273ffffffffffffffffffffffffffffffffffffffff161415611522576040517f08c379a00000000000000000000000000000000000000000000000000000000081526004016115199061284c565b60405180910390fd5b61152d838383611ade565b6115386000826112a5565b6001600360008573ffffffffffffffffffffffffffffffffffffffff1673ffffffffffffffffffffffffffffffffffffffff16815260200190815260200160002060008282546115889190612bd8565b925050819055506001600360008473ffffffffffffffffffffffffffffffffffffffff1673ffffffffffffffffffffffffffffffffffffffff16815260200190815260200160002060008282546115df9190612b51565b92505081905550816002600083815260200190815260200160002060006101000a81548173ffffffffffffffffffffffffffffffffffffffff021916908373ffffffffffffffffffffffffffffffffffffffff160217905550808273ffffffffffffffffffffffffffffffffffffffff168473ffffffffffffffffffffffffffffffffffffffff167fddf252ad1be2c89b69c2b068fc378daa952ba7f163c4a11628f55a4df523b3ef60405160405180910390a4505050565b6000600760009054906101000a900473ffffffffffffffffffffffffffffffffffffffff16905081600760006101000a81548173ffffffffffffffffffffffffffffffffffffffff021916908373ffffffffffffffffffffffffffffffffffffffff1602179055508173ffffffffffffffffffffffffffffffffffffffff168173ffffffffffffffffffffffffffffffffffffffff167f8be0079c531659141344cd1fd0a4f28419497f9722a3daafe3b4186f6b6457e060405160405180910390a35050565b6001816000016000828254019250508190555050565b600081600001549050919050565b600073ffffffffffffffffffffffffffffffffffffffff168273ffffffffffffffffffffffffffffffffffffffff1614156117f2576040517f08c379a00000000000000000000000000000000000000000000000000000000081526004016117e99061294c565b60405180910390fd5b6117fb81611231565b1561183b576040517f08c379a00000000000000000000000000000000000000000000000000000000081526004016118329061282c565b60405180910390fd5b61184760008383611ade565b6001600360008473ffffffffffffffffffffffffffffffffffffffff1673ffffffffffffffffffffffffffffffffffffffff16815260200190815260200160002060008282546118979190612b51565b92505081905550816002600083815260200190815260200160002060006101000a81548173ffffffffffffffffffffffffffffffffffffffff021916908373ffffffffffffffffffffffffffffffffffffffff160217905550808273ffffffffffffffffffffffffffffffffffffffff16600073ffffffffffffffffffffffffffffffffffffffff167fddf252ad1be2c89b69c2b068fc378daa952ba7f163c4a11628f55a4df523b3ef60405160405180910390a45050565b61195982611231565b611998576040517f08c379a000000000000000000000000000000000000000000000000000000000815260040161198f9061290c565b60405180910390fd5b806006600084815260200190815260200160002090805190602001906119bf929190611e3a565b505050565b6119cf84848461143c565b6119db84848484611ae3565b611a1a576040517f08c379a0000000000000000000000000000000000000000000000000000000008152600401611a11906127ec565b60405180910390fd5b50505050565b606060405180602001604052806000815250905090565b6060611a4282611231565b611a81576040517f08c379a0000000000000000000000000000000000000000000000000000000008152600401611a78906129ec565b60405180910390fd5b6000611a8b611a20565b90506000815111611aab5760405180602001604052806000815250611ad6565b80611ab584611c7a565b604051602001611ac69291906126a4565b6040516020818303038152906040525b915050919050565b505050565b6000611b048473ffffffffffffffffffffffffffffffffffffffff16611e27565b15611c6d578373ffffffffffffffffffffffffffffffffffffffff1663150b7a02611b2d61129d565b8786866040518563ffffffff1660e01b8152600401611b4f9493929190612743565b602060405180830381600087803b158015611b6957600080fd5b505af1925050508015611b9a57506040513d601f19601f82011682018060405250810190611b979190612239565b60015b611c1d573d8060008114611bca576040519150601f19603f3d011682016040523d82523d6000602084013e611bcf565b606091505b50600081511415611c15576040517f08c379a0000000000000000000000000000000000000000000000000000000008152600401611c0c906127ec565b60405180910390fd5b805181602001fd5b63150b7a0260e01b7bffffffffffffffffffffffffffffffffffffffffffffffffffffffff1916817bffffffffffffffffffffffffffffffffffffffffffffffffffffffff191614915050611c72565b600190505b949350505050565b60606000821415611cc2576040518060400160405280600181526020017f30000000000000000000000000000000000000000000000000000000000000008152509050611e22565b600082905060005b60008214611cf4578080611cdd90612d25565b915050600a82611ced9190612ba7565b9150611cca565b60008167ffffffffffffffff811115611d36577f4e487b7100000000000000000000000000000000000000000000000000000000600052604160045260246000fd5b6040519080825280601f01601f191660200182016040528015611d685781602001600182028036833780820191505090505b5090505b60008514611e1b57600182611d819190612bd8565b9150600a85611d909190612d6e565b6030611d9c9190612b51565b60f81b818381518110611dd8577f4e487b7100000000000000000000000000000000000000000000000000000000600052603260045260246000fd5b60200101907effffffffffffffffffffffffffffffffffffffffffffffffffffffffffffff1916908160001a905350600a85611e149190612ba7565b9450611d6c565b8093505050505b919050565b600080823b905060008111915050919050565b828054611e4690612cc2565b90600052602060002090601f016020900481019282611e685760008555611eaf565b82601f10611e8157805160ff1916838001178555611eaf565b82800160010185558215611eaf579182015b82811115611eae578251825591602001919060010190611e93565b5b509050611ebc9190611ec0565b5090565b5b80821115611ed9576000816000905550600101611ec1565b5090565b6000611ef0611eeb84612aac565b612a87565b905082815260208101848484011115611f0857600080fd5b611f13848285612c80565b509392505050565b6000611f2e611f2984612add565b612a87565b905082815260208101848484011115611f4657600080fd5b611f51848285612c80565b509392505050565b600081359050611f6881613429565b92915050565b600081359050611f7d81613440565b92915050565b600081519050611f9281613440565b92915050565b600081359050611fa781613457565b92915050565b600081519050611fbc81613457565b92915050565b600082601f830112611fd357600080fd5b8135611fe3848260208601611edd565b91505092915050565b600082601f830112611ffd57600080fd5b813561200d848260208601611f1b565b91505092915050565b6000813590506120258161346e565b92915050565b60008151905061203a8161346e565b92915050565b60006020828403121561205257600080fd5b600061206084828501611f59565b91505092915050565b6000806040838503121561207c57600080fd5b600061208a85828601611f59565b925050602061209b85828601611f59565b9150509250929050565b6000806000606084860312156120ba57600080fd5b60006120c886828701611f59565b93505060206120d986828701611f59565b92505060406120ea86828701612016565b9150509250925092565b6000806000806080858703121561210a57600080fd5b600061211887828801611f59565b945050602061212987828801611f59565b935050604061213a87828801612016565b925050606085013567ffffffffffffffff81111561215757600080fd5b61216387828801611fc2565b91505092959194509250565b6000806040838503121561218257600080fd5b600061219085828601611f59565b92505060206121a185828601611f6e565b9150509250929050565b600080604083850312156121be57600080fd5b60006121cc85828601611f59565b92505060206121dd85828601612016565b9150509250929050565b6000602082840312156121f957600080fd5b600061220784828501611f83565b91505092915050565b60006020828403121561222257600080fd5b600061223084828501611f98565b91505092915050565b60006020828403121561224b57600080fd5b600061225984828501611fad565b91505092915050565b60006020828403121561227457600080fd5b600082013567ffffffffffffffff81111561228e57600080fd5b61229a84828501611fec565b91505092915050565b6000602082840312156122b557600080fd5b60006122c384828501612016565b91505092915050565b6000602082840312156122de57600080fd5b60006122ec8482850161202b565b91505092915050565b6122fe81612c0c565b82525050565b61230d81612c1e565b82525050565b600061231e82612b0e565b6123288185612b24565b9350612338818560208601612c8f565b61234181612e5b565b840191505092915050565b600061235782612b19565b6123618185612b35565b9350612371818560208601612c8f565b61237a81612e5b565b840191505092915050565b600061239082612b19565b61239a8185612b46565b93506123aa818560208601612c8f565b80840191505092915050565b60006123c3603783612b35565b91506123ce82612e6c565b604082019050919050565b60006123e6603283612b35565b91506123f182612ebb565b604082019050919050565b6000612409602683612b35565b915061241482612f0a565b604082019050919050565b600061242c601c83612b35565b915061243782612f59565b602082019050919050565b600061244f602483612b35565b915061245a82612f82565b604082019050919050565b6000612472601983612b35565b915061247d82612fd1565b602082019050919050565b6000612495602c83612b35565b91506124a082612ffa565b604082019050919050565b60006124b8603883612b35565b91506124c382613049565b604082019050919050565b60006124db602a83612b35565b91506124e682613098565b604082019050919050565b60006124fe602983612b35565b9150612509826130e7565b604082019050919050565b6000612521602e83612b35565b915061252c82613136565b604082019050919050565b6000612544602583612b35565b915061254f82613185565b604082019050919050565b6000612567602083612b35565b9150612572826131d4565b602082019050919050565b600061258a603183612b35565b9150612595826131fd565b604082019050919050565b60006125ad602c83612b35565b91506125b88261324c565b604082019050919050565b60006125d0602083612b35565b91506125db8261329b565b602082019050919050565b60006125f3602983612b35565b91506125fe826132c4565b604082019050919050565b6000612616602f83612b35565b915061262182613313565b604082019050919050565b6000612639602183612b35565b915061264482613362565b604082019050919050565b600061265c603183612b35565b9150612667826133b1565b604082019050919050565b600061267f601f83612b35565b915061268a82613400565b602082019050919050565b61269e81612c76565b82525050565b60006126b08285612385565b91506126bc8284612385565b91508190509392505050565b60006020820190506126dd60008301846122f5565b92915050565b60006040820190506126f860008301856122f5565b61270560208301846122f5565b9392505050565b600060608201905061272160008301866122f5565b61272e60208301856122f5565b61273b6040830184612695565b949350505050565b600060808201905061275860008301876122f5565b61276560208301866122f5565b6127726040830185612695565b81810360608301526127848184612313565b905095945050505050565b60006020820190506127a46000830184612304565b92915050565b600060208201905081810360008301526127c4818461234c565b905092915050565b600060208201905081810360008301526127e5816123b6565b9050919050565b60006020820190508181036000830152612805816123d9565b9050919050565b60006020820190508181036000830152612825816123fc565b9050919050565b600060208201905081810360008301526128458161241f565b9050919050565b6000602082019050818103600083015261286581612442565b9050919050565b6000602082019050818103600083015261288581612465565b9050919050565b600060208201905081810360008301526128a581612488565b9050919050565b600060208201905081810360008301526128c5816124ab565b9050919050565b600060208201905081810360008301526128e5816124ce565b9050919050565b60006020820190508181036000830152612905816124f1565b9050919050565b6000602082019050818103600083015261292581612514565b9050919050565b6000602082019050818103600083015261294581612537565b9050919050565b600060208201905081810360008301526129658161255a565b9050919050565b600060208201905081810360008301526129858161257d565b9050919050565b600060208201905081810360008301526129a5816125a0565b9050919050565b600060208201905081810360008301526129c5816125c3565b9050919050565b600060208201905081810360008301526129e5816125e6565b9050919050565b60006020820190508181036000830152612a0581612609565b9050919050565b60006020820190508181036000830152612a258161262c565b9050919050565b60006020820190508181036000830152612a458161264f565b9050919050565b60006020820190508181036000830152612a6581612672565b9050919050565b6000602082019050612a816000830184612695565b92915050565b6000612a91612aa2565b9050612a9d8282612cf4565b919050565b6000604051905090565b600067ffffffffffffffff821115612ac757612ac6612e2c565b5b612ad082612e5b565b9050602081019050919050565b600067ffffffffffffffff821115612af857612af7612e2c565b5b612b0182612e5b565b9050602081019050919050565b600081519050919050565b600081519050919050565b600082825260208201905092915050565b600082825260208201905092915050565b600081905092915050565b6000612b5c82612c76565b9150612b6783612c76565b9250827fffffffffffffffffffffffffffffffffffffffffffffffffffffffffffffffff03821115612b9c57612b9b612d9f565b5b828201905092915050565b6000612bb282612c76565b9150612bbd83612c76565b925082612bcd57612bcc612dce565b5b828204905092915050565b6000612be382612c76565b9150612bee83612c76565b925082821015612c0157612c00612d9f565b5b828203905092915050565b6000612c1782612c56565b9050919050565b60008115159050919050565b60007fffffffff0000000000000000000000000000000000000000000000000000000082169050919050565b600073ffffffffffffffffffffffffffffffffffffffff82169050919050565b6000819050919050565b82818337600083830152505050565b60005b83811015612cad578082015181840152602081019050612c92565b83811115612cbc576000848401525b50505050565b60006002820490506001821680612cda57607f821691505b60208210811415612cee57612ced612dfd565b5b50919050565b612cfd82612e5b565b810181811067ffffffffffffffff82111715612d1c57612d1b612e2c565b5b80604052505050565b6000612d3082612c76565b91507fffffffffffffffffffffffffffffffffffffffffffffffffffffffffffffffff821415612d6357612d62612d9f565b5b600182019050919050565b6000612d7982612c76565b9150612d8483612c76565b925082612d9457612d93612dce565b5b828206905092915050565b7f4e487b7100000000000000000000000000000000000000000000000000000000600052601160045260246000fd5b7f4e487b7100000000000000000000000000000000000000000000000000000000600052601260045260246000fd5b7f4e487b7100000000000000000000000000000000000000000000000000000000600052602260045260246000fd5b7f4e487b7100000000000000000000000000000000000000000000000000000000600052604160045260246000fd5b6000601f19601f8301169050919050565b7f596f75206d75737420617070726f766520666f7220636f6e747261637420746f60008201527f207472616e73666572206372656174696e6720636f7374000000000000000000602082015250565b7f4552433732313a207472616e7366657220746f206e6f6e20455243373231526560008201527f63656976657220696d706c656d656e7465720000000000000000000000000000602082015250565b7f4f776e61626c653a206e6577206f776e657220697320746865207a65726f206160008201527f6464726573730000000000000000000000000000000000000000000000000000602082015250565b7f4552433732313a20746f6b656e20616c7265616479206d696e74656400000000600082015250565b7f4552433732313a207472616e7366657220746f20746865207a65726f2061646460008201527f7265737300000000000000000000000000000000000000000000000000000000602082015250565b7f4552433732313a20617070726f766520746f2063616c6c657200000000000000600082015250565b7f4552433732313a206f70657261746f7220717565727920666f72206e6f6e657860008201527f697374656e7420746f6b656e0000000000000000000000000000000000000000602082015250565b7f4552433732313a20617070726f76652063616c6c6572206973206e6f74206f7760008201527f6e6572206e6f7220617070726f76656420666f7220616c6c0000000000000000602082015250565b7f4552433732313a2062616c616e636520717565727920666f7220746865207a6560008201527f726f206164647265737300000000000000000000000000000000000000000000602082015250565b7f4552433732313a206f776e657220717565727920666f72206e6f6e657869737460008201527f656e7420746f6b656e0000000000000000000000000000000000000000000000602082015250565b7f45524337323155524953746f726167653a2055524920736574206f66206e6f6e60008201527f6578697374656e7420746f6b656e000000000000000000000000000000000000602082015250565b7f596f75722062616c616e6365206e6f7420656e6f756768206372656174696e6760008201527f20636f7374000000000000000000000000000000000000000000000000000000602082015250565b7f4552433732313a206d696e7420746f20746865207a65726f2061646472657373600082015250565b7f45524337323155524953746f726167653a2055524920717565727920666f722060008201527f6e6f6e6578697374656e7420746f6b656e000000000000000000000000000000602082015250565b7f4552433732313a20617070726f76656420717565727920666f72206e6f6e657860008201527f697374656e7420746f6b656e0000000000000000000000000000000000000000602082015250565b7f4f776e61626c653a2063616c6c6572206973206e6f7420746865206f776e6572600082015250565b7f4552433732313a207472616e73666572206f6620746f6b656e2074686174206960008201527f73206e6f74206f776e0000000000000000000000000000000000000000000000602082015250565b7f4552433732314d657461646174613a2055524920717565727920666f72206e6f60008201527f6e6578697374656e7420746f6b656e0000000000000000000000000000000000602082015250565b7f4552433732313a20617070726f76616c20746f2063757272656e74206f776e6560008201527f7200000000000000000000000000000000000000000000000000000000000000602082015250565b7f4552433732313a207472616e736665722063616c6c6572206973206e6f74206f60008201527f776e6572206e6f7220617070726f766564000000000000000000000000000000602082015250565b7f5265656e7472616e637947756172643a207265656e7472616e742063616c6c00600082015250565b61343281612c0c565b811461343d57600080fd5b50565b61344981612c1e565b811461345457600080fd5b50565b61346081612c2a565b811461346b57600080fd5b50565b61347781612c76565b811461348257600080fd5b5056fea2646970667358221220699110a7c7931b45442675631f96eaa4130b169dcefe7273772b9d0ba22a7d3f64736f6c63430008040033",
  "linkReferences": {},
  "deployedLinkReferences": {}
}